:020000040800F2
:10000000E8080020A9010008271A0008A115000827
:10001000251A000813060008511F00080000000000
:100020000000000000000000000000005D1B000850
:100030001506000800000000291A00085F1B0008D0
:10004000C3010008C3010008C3010008C301000880
:10005000C3010008C301000819060008C301000815
:10006000C3010008C3010008C3010008C301000860
:10007000C3010008C3010008C3010008C301000850
:10008000C3010008C3010008C3010008000000000C
:10009000000000000000000000000000C301000894
:1000A000C3010008C3010008C3010008C301000820
:1000B000C3010008C3010008C3010008C301000810
:1000C000C3010008C3010008C3010008C301000800
:1000D000C3010008C3010008C301000800000000BC
:1000E00025060008C3010008C30100080000000045
:1000F000000000000000000000000000C301000834
:1001000000000000C3010008C3010008C30100088B
:1001100000000000000000000000000000000000DF
:10012000C3010008C3010008C3010008C30100089F
:10013000C3010008000000000000000000000000F3
:10014000000000000000000000000000C3010008E3
:10015000C3010008C3010008C3010008C30100086F
:10016000C3010008C30100080000000000000000F7
:10017000000000000000000000000000000000007F
:1001800000000000C30100080000000000000000A3
:10019000C3010008DFF80CD000F08EF800480047DB
:1001A00035310008E8080020064880470648004727
:1001B000FEE7FEE7FEE7FEE7FEE7FEE7FEE7FEE717
:1001C000FEE7FEE7ED1B00089501000800207047E0
:1001D0002DE9F05F0546002092469B46884606467C
:1001E000814640241BE0284641464746224600F00F
:1001F00053F853465A46C01A914110D31146184637
:10020000224600F03AF82D1A67EB01084F462246C5
:100210000120002100F031F817EB00094E41201EAB
:10022000A4F10104DFDC484631462A464346BDE8D6
:10023000F09F40EA01039B0703D009E008C9121FA1
:1002400008C0042AFAD203E011F8013B00F8013B90
:10025000521EF9D27047D2B201E000F8012B491EBC
:10026000FBD270470022F6E710B513460A46044653
:100270001946FFF7F0FF204610BD202A04DB203A84
:1002800000FA02F1002070479140C2F1200320FAE9
:1002900003F3194390407047202A04DB203A21FAE7
:1002A00002F00021704721FA02F3D040C2F120028F
:1002B0009140084319467047064C074D06E0E06838
:1002C00040F0010394E8070098471034AC42F6D39D
:1002D000FFF764FF90330008B0330008F0B520A1A9
:1002E00093B00FC906AC84E80F0021A10AAC0FC976
:1002F00084E80F0022A30EAC0FCB84E80F00244843
:1003000000900723012206A9022002F09DFA20BBDB
:100310001F480026801C0124102502960590CDE977
:100320000354CDE90056A0F10E0714230AAA0221B6
:10033000B88902F02EFA80B907F11000CDE9044027
:100340000C20CDE90006CDE9024514230EAA0221B6
:10035000B88902F01EFA002800D0472013B0F0BD83
:10036000669A0C200008969EE2119EB1E0F273D9C5
:10037000669A0C200008969EE2119EB1E1F273D9B4
:10038000669A0C200008969EE2119EB1E2F273D9A3
:1003900010000020094B30B41C8A641CA04203D119
:1003A00030BC104602F0E4BED989891C884203D1D2
:1003B0001078012800D1587030BC7047040000202C
:1003C00030B5002487B0012801D9A41E28E01649C1
:1003D00001EB801515480021026842F400320260EA
:1003E000006800F40030059010481038026842F0B0
:1003F00001020260006800F0010005900C200090EE
:100400000220CDE901010720CDE903106946084823
:1004100000F01AFA284601F079FA08B16FF00304E7
:1004200007B0204630BD0000CC010020403802401B
:100430000000024000F0DEBA70B50446114886B0F4
:10044000016841F00101016000680F4E00F00100F9
:10045000059036F8140000900120019002900B4D99
:100460000220039055F82400694600F0EDF936F8B3
:10047000141055F82400002200F0B6FA06B000204F
:1004800070BD0000303802406E33000820000020AC
:10049000054910B5054A31F8101052F82000002225
:1004A00000F0A2FA002010BD6E33000820000020EA
:1004B000054910B5054A31F8101052F82000012204
:1004C00000F092FA002010BD6E33000820000020DA
:1004D000054910B5054A31F8101052F8200000F017
:1004E0007CFA002010BD00006E33000820000020C0
:1004F0000149012088707047000000200349044A28
:1005000031F8101052F8200000F062BA7033000881
:100510002400002030B50446224887B0051F002281
:1005200045F824002048036843F004030360006892
:1005300000F0040005901D4830F8140000900220DF
:10054000CDE90220A5F1100050F8240021B318498C
:100550000191694600F078F91448001D50F8241004
:1005600055F8240000F0CAF8A5F10800002150F861
:10057000242055F8240000F0D5F8281F0B4D50F822
:1005800024102D1F0022285700F0A4FA285700F04D
:1005900093FA07B0002030BD6946019200F054F98B
:1005A000F7E70000380000203038024070330008C0
:1005B0000000111010B50A490848002408600846D8
:1005C00000F030FD40B9064801F030FA044801F06F
:1005D0007FF908B16FF00704204610BD00300140DC
:1005E0007401002038B54FF48053009313460A4637
:1005F00001466FF00504034800F058FD00B90024DF
:10060000204638BD7401002010B50020FFF770FFB0
:1006100010BDFEE770470000014800F075B800000B
:1006200068010020014800F06FB800003800002089
:1006300070B505460A4801224261C18009A001F057
:10064000F9FC05240DA0295D01F0F4FC641E002CCA
:10065000F8DC2978BDE870400AA001F0EBBC00008E
:1006600004000020436F6E6E656374656420746FD0
:10067000206465766963653A0000000025303258D1
:100680002D000000253032580A00000070B5074CDC
:100690000025656106A001F0CDFC01202070657089
:1006A000A570E5702571657170BD00000400002023
:1006B000446973636F6E6E65637465640A0000005D
:1006C000044B1B895B1C984202D1104602F050BDBE
:1006D000704700000400002070B5044600F08AF95D
:1006E0000546601C02D004480078044400F082F9FA
:1006F000401BA042FAD370BD4400002010B101603D
:10070000002070470120704705490A68002A05D07B
:1007100002680A604068002800D000477047000067
:10072000143C01400346002009B1012070475A6083
:10073000704700002DE9F04F0022DFF8F0B00126ED
:100740004FF00F0906FA02F401EA0403A34267D14D
:1007500022F003075F44D7F8088895074FEA157C15
:1007600009FA0CFA0AEA0805DFF8C480404502D10C
:100770004FF000081DE0DFF8BC80404502D14FF08B
:10078000010816E0DFF8B080404502D14FF00208C2
:100790000FE0DFF8A880404502D14FF0030808E0E1
:1007A000DFF89C80404502D14FF0040801E04FF093
:1007B000070808FA0CF8A84515D1D7F808C82CEA9C
:1007C0000A0CC7F808C81F4D2F689F432F602D1DC6
:1007D0002F689F432F602D1D2F689F432F602D1D75
:1007E0002F689F432F60056857000323BB409D433C
:1007F0000560D50800EB8505D5F820C057074FEAFE
:10080000D76809FA08F72CEA070CC5F820C08568F4
:100810009D4385604568A5434560C4689C43C460AA
:10082000521C102A8ED3BDE8F08F0000003001402A
:10083000000002400004024000080240000C024098
:1008400000100240003C01402DE9F84FDFF860B194
:1008500000224FF001084FF0030A4FF00F090BF18F
:10086000040E00BF0B6808FA02F42340A3426ED1C5
:100870004D68022D01D0122D0ED1D50800EB850C4C
:10088000DCF820505607F70E09FA07F6B5430E6953
:10089000BE402E43CCF82060066855000F790AFA56
:1008A00005FC07F0030726EA0C06AF403743076054
:1008B0004E68012E05D0022E03D0112E01D0122E2B
:1008C0000ED18668CF6826EA0C06AF4037438760B2
:1008D0004668A6430C79C4F3001494403443446042
:1008E000C6688C6826EA0C06AC403443C4604C6889
:1008F000E40056D52F4C256845F4804525602468D2
:1009000022F0030504F4804400942B4C2E19D6F8F1
:10091000084895072F0F09FA07F5AC43274DA84261
:1009200001D1002515E0264DA84201D1012510E096
:10093000244DA84201D102250BE0234DA84201D14C
:10094000032506E0214DA84202D1042501E028E05C
:100950000725BD402543C6F80858DBF800405D4632
:100960004E689C43F60300D51C432C60DEF8004023
:1009700075464E689C43B60300D51C432C600C4D55
:1009800008352C684E689C43F60200D51C432C6049
:10099000074D0C352C684E689C43B60200D51C43AD
:1009A0002C60521C102AFFF45DAFBDE8F88F0000E8
:1009B000003C014044380240003001400000024049
:1009C0000004024000080240000C024000100240F7
:1009D0000069084000D001207047426931EA0202F4
:1009E00000D10904816170470AB18161704709042F
:1009F000FBE70000014880687047000044000020C9
:100A000002488168027811448160704744000020E8
:100A10000B4810B5016841F400710160016841F4B0
:100A200080610160016841F480710160032000F081
:100A300071F8002000F006F800F024F8002010BD46
:100A4000003C024070B50D4D04464FF47A71287891
:100A5000B1FBF0F00A490968B1FBF0F000F017FCB7
:100A600048B9102C07D200222146501E00F032F85F
:100A700000206C6070BD012070BD000044000020AB
:100A8000500000200B4882B0016841F480410160B1
:100A9000006800F4804000900648001F016841F0A3
:100AA00080510160006800F080500090072002B083
:100AB00000F030B844380240002809DB00F01F0283
:100AC000012191404009800000F1E020C0F80011B0
:100AD00070470000F0B40E4B1B680C46C3F30223B2
:100AE000C3F10705042D00D90425191D072901D2DA
:100AF000002300E0DB1E012606FA05F1491E214015
:100B000099409E40761E16403143F0BC01F0A2BAD7
:100B10000CED00E0064900F0070208684FF6FF03FD
:100B2000184040EA0220034A104308607047000062
:100B30000CED00E00000FA052DE9F0470E46050037
:100B400065D0DFF81481D8F80000F7B200F00F008C
:100B5000B04207D288F80070D8F8000000F00F000B
:100B6000B04254D128683D4C810712D5400703D5C7
:100B7000206840F4E05020602878000703D5206802
:100B800040F4604020602068A96820F0F00008432D
:100B900020602878C0072DD03049686808390128BE
:100BA00012D0022813D0032811D009688907002920
:100BB0002DDA216821F0030101432160FFF71AFFBC
:100BC000814641F2883A0EE009688903EFE7096837
:100BD0008901ECE7FFF70EFFA0EB0901514502D9AF
:100BE0000320BDE8F0872068696800F00C00B0EBD6
:100BF000810FEFD1D8F80010404601F00F01B1424B
:100C000007D90770006800F00F00B04201D0012042
:100C1000E7E72878400705D52068E96820F4E05028
:100C2000084320602878000706D52068296920F449
:100C3000604040EAC100206000F036F82168084AB0
:100C4000C1F30311515CC840064908600020FFF75A
:100C5000F9FE0020C5E70000003C024008380240D1
:100C600078330008500000200448054900680968EE
:100C7000044AC1F38221515CC840704750000020F3
:100C800008380240883300080448054900680968AC
:100C9000044AC1F34231515CC84070475000002003
:100CA0000838024088330008154810B5006810F075
:100CB0000C02144813D04110042A0FD0082A0ED178
:100CC0000F4C241F2268236802F03F025B0207D505
:100CD0002068C0F38810A0FB010106E0084610BDA3
:100CE0002168C1F38811A1FB00010023FFF770FA0E
:100CF0002168C1F30141491C4900B0FBF1F010BD6E
:100D0000083802400024F4002DE9F84F050076D0A1
:100D10002878DFF8F8B2BE4CC00749D0DBF80010E5
:100D20005846C1F38101012908D00068C0F3810051
:100D300002280AD1201D0068400206D520688003E1
:100D400036D568680028E2D032E06868B0F5803FA8
:100D500010D0B0F5A02F206810D020F48030206093
:100D6000206820F4802020606868A0B1FFF742FE70
:100D700006460CE0206840F48030F4E740F4802020
:100D80002060F7E7FFF736FE801B642873D82068E1
:100D90008003F7D50CE0FFF72DFE064605E000BF07
:100DA000FFF728FE801B6428F0D820688003F7D462
:100DB0002878DFF8608280074FF000093ED5DBF825
:100DC0000010584611F00C0F09D00068C0F38100E4
:100DD00002280BD18D48001F0068400206D420680D
:100DE000800715D5E868012809D111E0E868B8B195
:100DF0000120C8F80000FFF7FDFD064605E002E10E
:100E0000FFF7F8FD801B0228C0D820688007F7D5BF
:100E10002068296920F0F80040EAC10020600DE058
:100E2000C8F80090FFF7E6FD064604E0FFF7E2FD94
:100E3000801B02281FD820688007F7D42878000775
:100E400022D5724E744869696C3671B10121016016
:100E5000FFF7D0FD074604E0FFF7CCFDC01B0228DA
:100E600009D830688007F7D50EE0C0F80090FFF78A
:100E7000C1FD074605E083E0FFF7BCFDC01B02286B
:100E80007ED830688007F7D42878400768D5DFF827
:100E90007CA100270AF1380ADAF80000C0000BD460
:100EA000DAF8001041F08051CAF80010DAF80000BA
:100EB000012700F080500090584E3068C00510D4D3
:100EC000306840F480703060FFF794FD009005E0DA
:100ED000FFF790FD0099401A022851D83068C005EC
:100EE000F6D54A4EA868683601280FD00528306824
:100EF00010D020F001003060306820F00400306035
:100F0000A868B8B1FFF776FD00900FE0306840F0B8
:100F10000100F4E740F004003060F7E7FFF76AFDF6
:100F20000099411A41F28830814264D830688007C4
:100F3000F4D50EE0FFF75EFD009007E0FFF75AFDE5
:100F40000099411A41F28830814254D830688007B4
:100F5000F4D42FB1DAF8001021F08051CAF8001053
:100F6000A869C0B3DBF80010C1F3810102294AD09F
:100F70000228484607D0C8F86000FFF73BFD00E0B4
:100F800039E005463AE04746C8F86000FFF732FD11
:100F9000064604E0FFF72EFD801B02282BD82068B0
:100FA0008001F7D4D5E907010843A96A1C4A49081A
:100FB00002EB01416A6A41EA8211084395F82C105C
:100FC00040EA01611148001F016001203866FFF707
:100FD00011FD054605E014E0FFF70CFD401B02285B
:100FE00009D820688001F7D50BE000BFFFF702FDAC
:100FF000401B022802D90320BDE8F88F2068800139
:10100000F4D40020F8E70120F6E700000838024099
:101010000038024000004742800E47420070004006
:101020000000FFFF90F85100704770B5040005D034
:101030000025A56294F8510010B106E0012070BDB2
:1010400084F85050204600F030F8022084F8510017
:101050002068016821F040010160D4E901010843E2
:10106000D4E903121143084361690843218B01F459
:1010700000710843E1690843216A0843A16A0843F3
:1010800021680860A069042101EA1040616A0843F0
:10109000216848602068C16921F40061C16165650B
:1010A000012084F85100002070BD70472DE9F84FF1
:1010B000044690F8500000270A9E1D4692468B4633
:1010C0004FF0010901280ED0012084F85000FFF7ED
:1010D00091FC804694F85100616801280CD0B1F56C
:1010E000827F07D102E00220BDE8F88FA16809B92C
:1010F000042801D00227C2E0BBF1000F27D0BAF1CB
:10110000000F24D01DB394F85100042802D005200C
:1011100084F8510000206065C4F838A0E587A587F1
:10112000C4F830B0E586A586206460642068016854
:10113000490603D4016841F040010160E068B0F560
:10114000006F606805D0E8B3012D46D07FE001272D
:1011500095E008B1012D39D1206B21680088C86065
:10116000206B801C2063E08E401EE0862EE020680D
:10117000816889070FD5E18E69B1B9F1010F0AD1F4
:10118000216B0988C160206B801C2063E08E401EAB
:10119000E0864FF0000920688168C9070CD0E18F14
:1011A00051B1C068A16B0880A06B801CA063E08F68
:1011B000401EE0874FF00109FFF71CFCA0EB080080
:1011C000B04200E009E001D3701C50D1E08E00284D
:1011D000CDD1E08F0028CAD13FE0206B2168007894
:1011E0000873206B401C2063E08E401EE0862EE0DA
:1011F0002068816889070FD5E18E69B1B9F1010FC7
:101200000AD1216B09780173206B401C2063E08EAA
:10121000401EE0864FF0000920688168C9070CD0A5
:10122000E18F51B1C068A16B0870A06B401CA06336
:10123000E08F401EE0874FF00109FFF7DBFBA0EBDA
:101240000800B04202D3701C01D010E07EB1E08EE5
:101250000028CDD1E08F0028CAD142463146204631
:1012600000F022FC28B101272020606507E0032759
:1012700005E0A06818B92068C16880680090012066
:1012800084F85100002084F8500038462CE710B54F
:10129000401EB0F1807F01D3012010BD4FF0E0244B
:1012A00060610F21601700F0D5FE0020A0610720CB
:1012B0002061002010BD70B5040004D094F83900FE
:1012C000002510B106E0012070BD84F8385020469A
:1012D00000F022F8242084F839002068C16821F445
:1012E0000051C160204600F0ABFC2068016921F488
:1012F000904101612068416921F02A014161206823
:10130000C16841F40051C160E563202084F83900D0
:1013100084F83A00002070BD70472DE9F843044678
:1013200090F839001F4616460D46202850D1A5B129
:101330009EB194F8380001284AD0012084F8380082
:101340004FF00008C4F83C80212084F83900FFF7F2
:1013500051FBA6848146E68426E00120BDE8F8839F
:10136000E08C401EE084A0684B46B0F5805F4FF0F3
:1013700000024FF080012046009703D000F0B6FD38
:10138000E8B90DE000F0B2FDC8B928882168C0F3C3
:1013900008004860206908B16D1C05E0AD1C03E041
:1013A000216815F8010B4860E08C0028D8D14B4625
:1013B000002240212046009700F098FD08B103204C
:1013C000CCE7202084F8390084F838800020C5E775
:1013D0000220C3E710B5074C01212046FFF7AAF908
:1013E00002212046FFF7A6F9A1152046FFF7A2F932
:1013F000002010BD0000024070B5154886B00024E2
:10140000016841F0010101600068012500F0010060
:10141000009505900F48CDE901040F4E694630460E
:10142000FFF712FA28020090CDE9015469463046D0
:101430000394FFF709FA02200090CDE901546946B0
:1014400030460394FFF700FAFFF7B4F806B070BD1A
:101450003038024000001110000002402DE9F04138
:1014600086B00E460746FF2019A18DF81400D1E979
:101470000001CDE90301DFF860800024224602214B
:101480004046FFF7B1FA052201A903A8FFF7AAF821
:101490009DF80400022812D1BDF807507DB1B54275
:1014A0000BD9354609E00122694605A8FFF79AF8ED
:1014B0009DF800003855641CE4B2AC42F3D301221D
:1014C00002214046FFF790FA06B02046BDE8F081C1
:1014D0000B000000000000000000024070B50A4D43
:1014E0004FF48074002221462846FFF77DFA05203C
:1014F000FFF7F2F8012221462846FFF775FA05208A
:10150000FFF7EAF8002070BD000002402DE9FF4718
:1015100089461FA18246D1E90001CDE90201FFF70A
:1015200069FA1D4E05466FF001084FF0FF370024A1
:10153000224602213046FFF757FA0522694602A8E3
:10154000FFF750F89DF8000002280DD03C4601221C
:1015500002213046FFF748FAFFF74CFA401B0F28EC
:101560000FD96FF002040EE09DF80110484649457E
:1015700005D3024609495046FFF734F8E7E74446E9
:10158000E5E7002CD3DB04B02046BDE8F08700007F
:101590000A00000000000000000002406800002077
:1015A000FEE700002DE9F0434DA08BB0D0E90070BC
:1015B00080464DA00121D0E900560020FEF7AAFF89
:1015C0000020FEF739FF0020FEF7FAFE0020FEF7AC
:1015D00095FF474C60700021464801F02BFB05A9A0
:1015E00004A801F001FB01F0FFFB6420FFF774F891
:1015F000BDF814209DF810103FA000F01BFD9DF8D1
:1016000010004FF00109302801D984F80090E078EB
:10161000002831D0CDE9065606AA0621002001F0A7
:1016200080FA010002D039A000F004FD01F08EF92B
:1016300010B13EA000F0FEFCE27809A8012A227851
:1016400008A91CD0012A28D003460A460AA903206B
:1016500000F093FF10B13AA000F0ECFC00223D49ED
:101660001023CDE90032CDE90219072311460120EC
:1016700000F0EFFFD0B11CE0CDE90678CCE7012AFD
:1016800004D003460A460AA90120E1E7CDE900108B
:10169000072200210AAB012005E0CDE900100AABCA
:1016A00007220021042000F09CFFD3E72AA000F0CD
:1016B000C1FCE078012801D02DA006E034A000F0A4
:1016C000B9FCFEF70BFE48B139A000F0B3FC0421D1
:1016D000012001F002FA0BB0BDE8F0833CA0F4E772
:1016E000BB0000E180020000AA0000E180020000CF
:1016F000000000206D32000848577665722025648E
:101700002C2046577665722025640A005365747450
:10171000696E672042445F41444452206661696CAF
:101720006564203078253032782E0A0047415454C1
:101730005F496E6974206661696C65642E0A0000F9
:101740004741505F496E6974206661696C65642E1B
:101750000A00000040E20100424C452053746163DE
:101760006B20496E697469616C697A65642E0A0040
:10177000434C49454E543A20424C452053746163D2
:101780006B20496E697469616C697A65640A00004E
:101790005345525645523A20424C4520537461639A
:1017A0006B20496E697469616C697A65640A00002E
:1017B0004572726F72207768696C65206164646934
:1017C0006E6720736572766963652E0A00000000FB
:1017D000536572766963652061646465642073751E
:1017E000636365737366756C6C792E0A0000000084
:1017F00010B500F0AFFBBDE8104001F019BC0000CF
:10180000F0B587B014216846FEF72CFD2B48002464
:10181000016841F004010160016801F004010591D3
:10182000016841F080010160016801F080010591CB
:10183000016841F001010160016801F001010591B9
:10184000016841F00201016000681D4F00F00200D4
:101850004FF491760590002231463846FFF7C4F8E0
:101860004FF4005000901748CDE90104694616482E
:10187000FEF7EAFF012515480095CDE90104694608
:101880003846FEF7E1FF0096CDE901546946384637
:101890000394FEF7D9FF002211460620FFF71AF93C
:1018A0000620FFF709F9002211462820FFF712F958
:1018B0002820FFF701F907B0F0BD000030380240E2
:1018C000000002400000211000080240000011103A
:1018D00010B50D49016000244FF48271C0E9011474
:1018E000C4604FF400720461C0E905421822C0E9E7
:1018F000072444620A21C0E90A41FFF796FB00B1C0
:101900000124204610BD00000030014010B50949F7
:10191000016000244FF4E131C0E901140C22C460DD
:10192000C0E904428461C461FFF7C5FC00B1012431
:10193000204610BD0044004010B523488CB0002460
:101940000078D8B121A30DF11C0C0FCB8CE80F004F
:101950000021084601F0DAF905940394049407A8DD
:101960000D2106940094CDE9011000234FF480521C
:101970005110184600F0A7FE0CB010BD17A000F0E3
:1019800059FB1DA1D1E90001CDE907010020FEF7B7
:101990008FFD4FF4FA603C21CDE904100690282019
:1019A000CDE9004002904FF48040039407AB002241
:1019B000014600F0A0FD0028DED011A000F03AFBA7
:1019C0006420FEF789FED7E70300002009426C750A
:1019D000654E52475F43686174000000436C69655F
:1019E0006E742043726561746520436F6E6E65632B
:1019F00074696F6E0A000000AA0000E18002000016
:101A00004572726F72207768696C652073746172B9
:101A100074696E6720636F6E6E656374696F6E2E96
:101A20000A000000FEE7704770470000F0B51B4851
:101A300087B00024016841F480510160006800F41F
:101A40008050059015481438016841F0010101608B
:101A5000016801F001010591016841F00201016096
:101A60000068022500F002000590C020CDE90005C5
:101A700002AA0326052782E8D00069460848FEF737
:101A8000E3FE0820CDE9000502AA694682E8D000FD
:101A90000448FEF7D9FE07B0F0BD0000443802400C
:101AA000000002400004024038B50B460092044694
:101AB0000022802100F008F8002804D0606D40F07A
:101AC00020006065032038BD2DE9F0411D46174612
:101AD0000E460446DDF8188008E0681C06D0FEF7C4
:101AE00089FFA0EB0800A8420BD255B1206880689E
:101AF00036EA000030D00020B842EED10020BDE828
:101B0000F0812068416821F0E00141606068B0F533
:101B1000827F0BD1A068B0F5004F02D0B0F5806F86
:101B200004D12068016821F040010160A06AB0F58D
:101B3000005F09D12068016821F40051016020682C
:101B4000016841F400510160012084F85100002037
:101B500084F850000320D2E70120CDE77047FEF75C
:101B60004FBF000030B593B030216846FEF77AFBD6
:101B700014210CA8FEF776FB1A480024016841F0F6
:101B800080510160006800F0805011901648016893
:101B900021F4404141F4004101600068022500F455
:101BA000404011900120039010200095069504906C
:101BB000CDE907404FF4A870099004200A9007204F
:101BC0000B906846FFF7A0F80F20CDE90C05E8025E
:101BD000CDE90E4002210CA81094FEF7ADFF13B022
:101BE00030BD0000403802400070004010480168DD
:101BF00041F4700101600F48016841F0010101608A
:101C00000C4A00210832116002680B4B1A40026036
:101C1000031D0A4A1A60026822F480220260054805
:101C20000C30016002495806803908607047000096
:101C300088ED00E000380240FFFFF6FE103000247F
:101C40002DE9F041044600680169E26821F4405141
:101C5000114301612169A068E26908436169114388
:101C600022680843D16849F20C6399430143D1606B
:101C700020684169A26921F4407111434161E26920
:101C80006425B2F5004F9748974922684FF0320813
:101C90003FD08A4201D082427CD1FEF7F5FF00EBB3
:101CA000C00101EB001061688900B0FBF1F6FEF79E
:101CB000EBFF00EBC00101EB001061688900B0FB95
:101CC000F1F0B0FBF5F06FF01801484306EB80012E
:101CD00008EB0110B0FBF5F000F0F006FEF7D4FFC2
:101CE00000EBC00101EB001061688900B0FBF1F06E
:101CF000B0FBF5F006EB0016FEF7C6FF00EBC001E7
:101D000001EB001061688900B0FBF1F7FEF7BCFF42
:101D1000D2E08A4201D082423DD1FEF7B5FF00EB0E
:101D2000C00101EB001061684900B0FBF1F0B0FBAD
:101D3000F5F00601FEF7A8FF00EBC00101EB001073
:101D400061684900B0FBF1F7FEF79EFF00EBC001B0
:101D500001EB001061684900B0FBF1F0B0FBF5F059
:101D60006FF01801484307EB800108EBC100B0FB9E
:101D7000F5F000F0F80006EB4006FEF785FF00EBFB
:101D8000C00101EB001061684900B0FBF1F7FEF7FC
:101D90007BFF3CE055E0FEF767FF00EBC00101EB85
:101DA000001061684900B0FBF1F0B0FBF5F00601EE
:101DB000FEF75AFF00EBC00101EB0010616849001B
:101DC000B0FBF1F7FEF750FF00EBC00101EB001094
:101DD00061684900B0FBF1F0B0FBF5F06FF018015D
:101DE000484307EB800108EBC100B0FBF5F000F0C1
:101DF000F80006EB4006FEF737FF00EBC00101EBF1
:101E0000001061684900B0FBF1F7FEF72DFF00EB11
:101E1000C00101EB001061684900B0FBF1F0B0FBBC
:101E2000F5F06FF01801484307EB800108EBC100A3
:101E3000B0FBF5F000F00700216830448860BDE891
:101E4000F081FEF711FF00EBC00101EB00106168AB
:101E50008900B0FBF1F6FEF707FF00EBC00101EBD4
:101E6000001061688900B0FBF1F0B0FBF5F06FF095
:101E70001801484306EB800108EB0110B0FBF5F0B8
:101E800000F0F006FEF7F0FE00EBC00101EB0010E1
:101E900061688900B0FBF1F0B0FBF5F006EB0016CD
:101EA000FEF7E2FE00EBC00101EB00106168890063
:101EB000B0FBF1F7FEF7D8FE00EBC00101EB00101C
:101EC00061688900B0FBF1F0B0FBF5F06FF018012C
:101ED000484307EB800108EB0110B0FBF5F000F080
:101EE0000F00A9E700140140001001402DE9F04166
:101EF000984617460E460446069D1DE0681C1BD0FA
:101F00002DB1FEF777FDA0EB0800A84214D9206898
:101F1000C16821F4D071C1602068416921F00101DC
:101F20004161202084F8390084F83A00002084F8C8
:101F300038000320BDE8F0812068006836EA000020
:101F400004D00020B842D9D00020F3E70120F9E7FF
:101F5000FEE700002DE9F0432B4D85B028782B4C8F
:101F60004FF0000938B1FFF7E7FC85F8009000203A
:101F7000FEF7C4FA6070E078254DDFF89880E8B984
:101F80002868254E254F08B1307820B1286838B12F
:101F9000387818B104E001F045F901E001F01EF9CC
:101FA000286858B1307848B1387838B198F80000CE
:101FB00020B90020FEF76CFA00F0E2FDA0780028BE
:101FC0001DD03220FEF788FB0020FEF797FA6178DB
:101FD000C1B100218842F7D03220FEF77DFB28688E
:101FE00058B198F8000040B114220DA16846FEF7E0
:101FF00020F91421684601F0D3F884F8029005B066
:10200000BDE8F0830121E5E7040000200000002086
:102010001800002005000020080000200900002012
:10202000303132333435363738394142434445460E
:102030004748494A0FB4054B10B503A9044A029812
:1020400000F028F810BC5DF814FB0000C52B000858
:10205000640000200907090E002804DB00F1E020DD
:1020600080F80014704700F00F0000F1E02080F8C5
:10207000141D704702E008C8121F08C1002AFAD1D7
:1020800070477047002001E001C1121F002AFBD1F8
:10209000704700002DE9FF4F8DB00F460546002622
:1020A00006E025280BD0DDE90F1290476D1C761C49
:1020B00028780028F5D111B03046BDE8F08F002413
:1020C000A246A1460122EC4900E0044315F8013F75
:1020D000203B02FA03F00842F7D128782A2810D0D2
:1020E0006FF02F022878A0F13001092914D80AEBEB
:1020F0008A0102EB410144F0020400EB010A6D1C6D
:10210000F0E701CF5FEA000A03D544F40054CAF1B6
:10211000000A44F002046D1C28782E2817D115F807
:10212000010F44F004042A280ED06FF02F02287803
:10213000A0F1300109290AD809EB890102EB41011C
:1021400000EB01096D1CF2E757F8049B6D1C287821
:102150006C280FD006DC4C2817D068280DD06A28D0
:1021600014D104E0742810D07A280FD10DE044F483
:1021700000140AE044F4801401E044F44014697847
:10218000814202D104F580146D1C6D1C2A786E2AE0
:102190001FD00CDC632A31D004DC002A8BD0582AF3
:1021A00011D1A3E0642A68D0692A0CD165E0732AB2
:1021B0002ED004DC6F2A73D0702A04D19BE0752ADC
:1021C0006FD0782A6ED01046DDE90F129047761C4A
:1021D00050E1C4F30250022806D0032809D0042895
:1021E00001CF09D0066045E101CFF117C0E90061D8
:1021F00040E101CF06803DE106703BE117F8040B9A
:102200008DF8000000208DF80100EB46012003E06E
:1022100057F804BB4FF0FF3061074FF0000102D4C4
:102220000DE008F10101884649450FDA8045F8DBE9
:102230001BF808100029F4D108E008F101018846D4
:102240008142FADB1BF808100029F6D1DDE90F23E3
:10225000AAEB08008146214600F036F9304400EB35
:10226000080604E0DDE90F121BF8010B9047B8F1F6
:102270000108F7D221464846F7E00A21C4F3025389
:102280004FF0000B0891022B04D001CFC117032B94
:1022900009D00AE0FF1D27F00707F7E8020108E070
:1022A00032E01FE020E000B2C117042B01D140B2A0
:1022B000C117031E71F1000307DA4FF0000CD0EBD9
:1022C0000C006CEB01012D2302E0230504D52B2328
:1022D0008DF82430012303E0E30701D02023F7E742
:1022E000984658E00A2110E010210EE010204FF02F
:1022F000000B08900CE010214FF0000B44F0040498
:102300004FF00809089103E008214FF0000B0891F5
:10231000C4F30253022B04D001CF0021032B06D0BB
:1023200006E0FF1D27F00707F7E8020103E080B28F
:10233000042B00D1C0B24FF0000823072BD5702A20
:1023400007D0DDF820C08CF0100C5CEA0B0C05D037
:102350000EE040238DF82430012308E050EA010309
:1023600006D030238DF824308DF82520022398469E
:10237000DDF820C08CF0080C5CEA0B0C0BD150EAA5
:10238000010301D1630706D530238DF824304FF0C7
:102390000108A9F10109582A04D038A20B9208AA11
:1023A0000A920BE03AA2F9E75B46089AFDF710FFA4
:1023B0000B9B9B5C0A9A521E0A92137050EA010210
:1023C000F2D10A98ADEB000000F1200B600702D5B6
:1023D00024F4803401E04FF00109D94502DDA9EB76
:1023E0000B0000E0002000EB0B0141440890AAEB39
:1023F000010AE00306D4DDE90F232146504600F030
:1024000063F806444FF0000908E009A911F8090033
:10241000DDE90F12904709F10109761CC145F4DB93
:10242000E0030CD5DDE90F232146504600F04CF8BF
:10243000064404E0DDE90F1230209047761C08992D
:10244000481E08900029F5DC08E00A980A990078EF
:10245000491C0A91DDE90F129047761CBBF100017F
:10246000ABF1010BF1DC21465046DDE90F2300F012
:1024700019F806446D1C1BE609280100303132337F
:1024800034353637383961626364656600000000B0
:10249000303132333435363738394142434445469A
:1024A000000000002DE9F041044600251E461746B5
:1024B000880404D405E039462020B0476D1C641E12
:1024C000F9D52846BDE8F0812DE9F0410446002504
:1024D0001E469046C80301D5302700E02027880417
:1024E00004D505E041463846B0476D1C641EF9D559
:1024F0002846BDE8F0812DE9F0438DB00DF1500E76
:102500009EE8F013ADF80000ADF802108DF804203D
:102510001868CDF805009888ADF80900ADF80C50A2
:10252000ADF81070ADF814908DF80B40ADF80E605A
:10253000ADF81280ADF816C0182106A8FDF792FE7E
:102540003F20ADF818009C20ADF81A001820099023
:102550000F2007900CA80A9001200B90CDF820D0F6
:10256000002106A800F05CFC002803DAFF200DB073
:10257000BDE8F0839DF83000F9E770B58AB00E46EB
:102580008DF820000020009001901C46154618216F
:1025900002A8FDF767FE3F20ADF808008A20ADF8DD
:1025A0000A0008A804900120059007200790CDF8A4
:1025B00018D0002102A800F033FC002802DAFF2026
:1025C0000AB070BD9DF800000028F9D1BDF80100E7
:1025D0003080BDF803002880BDF805002080002071
:1025E000EEE770B58AB01C468DF82000DDE90E6577
:1025F00000208DF82110009001908DF822201821E4
:1026000002A8FDF72FFE3F20ADF808008A20ADF8A4
:102610000A0008A804900320059007200790CDF831
:1026200018D0002102A800F0FBFB002802DAFF20EE
:102630000AB070BD9DF800000028F9D1BDF8010076
:102640002080BDF803003080BDF805002880002000
:10265000EEE72DE9F0438FB01D46134616AA6C46EF
:1026600092E8C0038DF800008DF801101022194681
:10267000A01CFDF7DEFD8DF812508DF813608DF86B
:102680001470CDF815808DF81990182107A8FDF762
:10269000E9FD3F20ADF81C008620ADF81E001A2091
:1026A000CDE909400DA80B9001200C90002107A84E
:1026B00000F0B6FB002803DAFF200FB0BDE8F0837E
:1026C0009DF83400F9E72DE9FF4192B01EACDDE939
:1026D0001C2594E84201AC190E34282C03D9422061
:1026E00016B0BDE8F0818DF81C00BDF84C00ADF8C7
:1026F0004C0080B2ADF81D00BDF85000ADF85000A0
:1027000080B2ADF81F008DF821308DF8222007AC83
:1027100001278DF8235009A82A46FDF78AFD0835C0
:10272000E8B232462654401CC5B260194146FDF756
:1027300080FDBDF88410A819ADF88410C0B221182E
:10274000BDF884200A80BDF88810801CADF8881080
:10275000C0B22118BDF88820801C0A80C5B218219B
:1027600001A8FDF77FFD3F20ADF804008320ADF800
:10277000060011A8CDE9045000210697039401A892
:1027800000F04EFB002801DAFF20A9E79DF8440085
:10279000A6E72DE9FF4F8FB01F46DDE92089BDF880
:1027A0003C00DDF878A0ADF83C0080B2DDF870B0F8
:1027B000ADF81C000326134607AD8DF81E10012945
:1027C00037D0102422461946E81CFDF732FDE41CE0
:1027D0002F55641C05F804B0641C1D982855641C12
:1027E000E0B205F800A0401CC0B21F992954401C5B
:1027F000C0B2182105F80080401CC4B2002000902F
:1028000001A8FDF72FFD3F20ADF804004FF48270C2
:10281000ADF806006846CDE9044000210696039510
:1028200001A800F0FDFA002805DAFF2013B0BDE88A
:10283000F08F0224C6E79DF800000028F6D1BDF80D
:102840000110A9F80010F1E72DE9F0418CB01E4607
:10285000DDF84880174607AD8DF81C00012826D00A
:1028600010242246681CFDF7E4FC641C00202F5550
:10287000641C18212E55009001A8641CFDF7F2FC81
:102880003F20ADF804004FF48170ADF806006846B3
:10289000CDE90440032006900395002101A800F033
:1028A000BFFA002805DAFF200CB0BDE8F081022451
:1028B000D7E79DF800000028F6D1BDF80110A8F870
:1028C0000010F1E73FB58FB06C46BDF83C00ADF8A5
:1028D0003C0080B2ADF80000BDF84000ADF840000B
:1028E00080B2ADF802001699BDF84400ADF844007E
:1028F00080B2ADF804008DF80630012B21D01025F0
:102900002A46E01DFDF795FC182106A8ED1DFDF7F0
:10291000A9FC3F20ADF818004FF48B70ADF81A00F9
:1029200007AA0F2082E831000CA80A9001200B9022
:10293000002106A800F074FA002804DAFF2013B082
:1029400030BD0225DCE79DF83000F8E700B587B020
:1029500018216846FDF786FC3F20ADF8000040F2E4
:102960000110ADF8020006A8049001200590002196
:10297000684600F055FA002802DAFF2007B000BDD3
:102980009DF81800FAE73FB5A7B09D1D2E99802D40
:1029900002D942202BB030BDBDF89C00ADF89C00A0
:1029A00080B2ADF80000BDF8A000ADF8A00080B284
:1029B0008DF804206C46ADF802008DF805301A46FB
:1029C000A01DFDF736FCEDB2182120A8FDF74AFC4A
:1029D0003F20ADF880004FF48370ADF8820026A848
:1029E0002294CDE9235001202590002120A800F059
:1029F00017FA002801DAFF20CCE79DF89800C9E714
:102A00003FB5541DA7B01946802C02D942202BB0E7
:102A100030BDBDF89C00ADF89C0080B2ADF8000060
:102A2000BDF8A000ADF8A00080B26D46ADF8020080
:102A30008DF80420681DFDF7FCFBE4B2182120A8E6
:102A4000FDF710FC3F20ADF8800040F22110ADF8FA
:102A500082000F20CDE9210526A8CDE923400120E1
:102A60002590002120A800F0DBF9002801DAFF20E2
:102A7000CDE79DF89800CAE730B58FB01446142A08
:102A800002D942200FB030BDADF80000ADF8021001
:102A90006D468DF8044022461946681DFDF7C9FBB6
:102AA000182107A8FDF7DEFB3F20ADF81C0040F21F
:102AB0002310ADF81E000DA8641DCDE90A400120C9
:102AC0000C900995002107A800F0AAF9002801DA66
:102AD000FF20D7E79DF83400D4E700B589B08DF822
:102AE0001C008DF81D1018216846FDF7BBFB3F2028
:102AF000ADF800000F20ADF8020007A802900220F8
:102B0000039006A80490012005900021684600F07B
:102B100087F9002802DAFF2009B000BD9DF81800EF
:102B2000FAE770B58D1CA8B01346802D02D942205B
:102B300028B070BD8DF800006C468DF801100A4673
:102B400001261946A01CFDF774FBEDB2182120A840
:102B5000FDF788FB3F20ADF880000C20ADF8820027
:102B600026A825962294CDE92350002120A800F024
:102B700057F9002801DAFF20DAE79DF89800D7E737
:102B8000F8B50EA000680090FDF734FF04460C4D28
:102B900042F2107605E000BFFDF72CFF001BB042AB
:102BA00009D828896B46801C81B20222E888FFF789
:102BB00027FF4628F0D001206870F8BD0100000012
:102BC0000400002013B5074905484FF47A730978CB
:102BD000012200EB81106946FEF79FFB00981CBDA7
:102BE000CC0100201C00002030B587B0054601A8AC
:102BF0000C46009005AB04AA02A903A800F048F80F
:102C000010F0FF0014D1BDF80810090A2970BDF8B2
:102C1000081009022180BDF80420C2F3031241EA22
:102C200002112180BDF8042002F00F02114321801F
:102C300007B030BD70B5134D00B1E86100F0B4F9D4
:102C4000114800F021FA1048083000F01DFA0F4E2C
:102C5000002400BFC4EBC40000EB800006EB800141
:102C6000094800F020FA641CE4B2052CF2D329686C
:102C700009B100208847A868002802D0BDE870404C
:102C8000004770BDC8040020540000200C02002042
:102C90002DE9F04389B000240F468046DDF84090CE
:102CA0001D46164600940194182103A80294FDF7CE
:102CB000D9FA0420ADF80C000120ADF80E006846EA
:102CC000CDE90640092008900594002103A800F0F2
:102CD000A7F8002803DAFF2009B0BDE8F0839DF8CB
:102CE00000000028F8D19DF8011088F80010BDF808
:102CF000020038809DF804003070BDF8050028807F
:102D0000BDF80710A9F800100020E5E730B58FB036
:102D10000D46044620216846FDF7A4FA8DF80040D0
:102D20001F2C00D91F2422466C462946601CFDF743
:102D300080FA182108A8FDF795FA0820ADF82000C0
:102D40000920ADF822002020CDE90A400EA80C9001
:102D500001200D90002108A800F062F8002802DA96
:102D6000FF200FB030BD9DF83800FAE708B500200D
:102D70000090144800F0A3F900281ED169461148BC
:102D800000F0A9F91048C268002A16D000988021E6
:102D900008309047009910F0FF000FD081F88800AC
:102DA0000B7A01F10802042B08D19278C01E8242EE
:102DB00004D10448083000F076F908BD014800F05D
:102DC00066F908BD54000020C804002005490268C7
:102DD0000A60C268CA6002690A6182698A618068A1
:102DE00088607047C804002000B587B01821684685
:102DF000FDF738FA0320ADF80000ADF8020006A890
:102E00000490012005900021684600F009F8002890
:102E100002DAFF2007B000BD9DF81800FAE70000B5
:102E20002DE9F0410F46044601884088A8B061F3BF
:102E30009F2085B24FF0000826A8CDF8908000F0C2
:102E400023F908E06946564800F045F954480099CE
:102E5000083800F028F95248083800F007F902282D
:102E6000F0DB22886088267B62F39F20A168ADF8A2
:102E7000840001208DF886608DF80000BDF8840084
:102E8000ADF801008DF80360324601A8FDF7D1F9D5
:102E90004448026912B1311D684690471FB10020B5
:102EA00028B0BDE8F0814FF47A7600BFFDF7A2FDAF
:102EB0004FEA0007FDF79EFDC01BB04262D83848BC
:102EC00000F0FDF80028F5D124A9354800F003F9F9
:102ED000249800F10803017A04293ED190F8882053
:102EE0005878D91CD21E0E2814D00F2804D01028D0
:102EF00048D03E2831D118E04888A84242D16068C5
:102F00000F2802D00878A8BB27E0606909E0626159
:102F1000206916E0B1F80100A84233D1C91C6069EC
:102F2000D21E9042F3D80246F1E7087863689842CF
:102F300013D16069521E904200D802466261491C5A
:102F40002069FDF776F916482499083800F09FF8B3
:102F500026A9134800F0F9F8A1E71148083800F055
:102F6000AEF840B10E4800F0AAF820B10C48249900
:102F7000083802E006E026A8249900F094F8CDF87D
:102F8000908093E7249919B10548083800F07FF83C
:102F900026A9034800F0D9F84FF0FF3080E7000081
:102FA0005C000020C804002000B587B010480090E5
:102FB0001048019010480490104803901048029067
:102FC000104806906846FFF701FF01210E48FDF703
:102FD00095FB0E4A00210C48FDF7A4FB0022114688
:102FE0000620FDF777FD0620FDF766FD07B000BD62
:102FF000F9130008D51300080D1500085D1400082A
:10300000DD140008350400086801002011300008B4
:1030100010B5064C01212046FDF7DAFC012803D14A
:103020000020FFF7A3FEF5E710BD000000000240FE
:1030300038B500200B4C00900DE069460A4800F0BE
:103040004AF8E16911B100980830884706480099AC
:10305000083800F028F8044800F031F80028ECD0D7
:1030600038BD0000C80400205C000020034600209A
:10307000EFF3108172B61A6801E01268401C9A42A0
:10308000FBD181F310887047006040607047EFF318
:10309000108272B60368C1E900300160086882F3EB
:1030A000108841607047EFF3108272B60860436881
:1030B0004B604160486882F3108801607047EFF30D
:1030C000108172B60268824201D1012000E0002026
:1030D00081F31088704730B50D46EFF3108472B657
:1030E00001682960006800F008F82968002008607D
:1030F000296884F31088486030BDEFF3108172B600
:10310000D0E900231A6005C881F310884260704737
:1031100030B50D46EFF3108472B6416829604068FF
:10312000FFF7EBFF296800200860296884F3108806
:10313000486030BDFDF76CFCFEF714FDFEF760FB48
:10314000FEF730FAFEF754FBFCE738B50C460546AF
:1031500007E069462046FFF7DBFF28460099FFF7A6
:1031600096FF2046FFF7ABFF0028F2D038BD0000E5
:1031700070B506460D460020FDF7AAF9002404E0CC
:10318000315D05A0FEF756FF641CAC42F8DBBDE8DC
:1031900070400248FDF71AB8256300006400002063
:1031A00038B50C4A0C4C1278012A0BD062890346C0
:1031B000521C95B20A46E088294601B0BDE830406D
:1031C000FFF75ABC00900B460022E189A089FFF767
:1031D000DAFB38BD030000200400002010B50C4CC1
:1031E00086B0E078002810D10AA30DF1040C0FCBB3
:1031F0008CE80F0001A8009002234FF6FF72012116
:10320000E088FFF75FFB0120E07006B010BD000012
:1032100004000020669A0C200008969EE2119EB1E0
:10322000E2F273D910B50C4C86B0A078002810D10A
:103230000AA30DF1040C0FCB8CE80F0001A800903D
:1032400002234FF6FF720121E088FFF73BFB0120CC
:10325000A07006B010BD000004000020669A0C208B
:103260000008969EE2119EB1E1F273D9421C0078EB
:1032700004285AD11078052826D03E2826D0FF28C9
:1032800053D132F8023FA3F54063013B26D00E2B09
:1032900030D027480F2B0178264838D0112B44D145
:1032A000002942D18178921C09B1017951B3C178CA
:1032B00000293AD04179002937D1B2F80310418171
:1032C0001DA000BFFEF7B6BEFDF7E0B99178901CD7
:1032D00001292AD14188801DFDF7AAB91C4891799E
:1032E00000780128908803D012F10702FDF752B848
:1032F0000932FBE71079801EC1B2B2F80500D21D79
:10330000FDF7DEB9B2F80310018112A0DAE7002957
:103310000BD1827801210AB102793AB1C278002A30
:1033200003D04279002A00D1417170470171704782
:1033300003000020040000205258204368617220DE
:1033400048616E646C6520253034580A0000000026
:1033500000000020545820436861722048616E6468
:103360006C6520253034580A000000002800200039
:10337000002000000020000000000000000000000D
:10338000010203040607080900000000010203040B
:10339000B03300080000002068000000742000081E
:1033A000183400086800002080080000842000080D
:1033B000000100010100000000000000000000000A
:1033C00000000000000000000000000000000000FD
:1033D00000000240000802400044004009060008C6
:1033E0000F000000000000000020000000000000AE
:1033F00000000000010000001000000000000000BC
:103400000024F400000000000000000000000000A4
:083410000000000000000000B4
:040000050800019559
:00000001FF
