:020000040800F2
:10000000E80E0020A901000883310008012D000836
:1000100081310008730A0008E13A0008000000007E
:10002000000000000000000000000000F1320008A5
:10003000310B00080000000085310008F332000891
:10004000C3010008C3010008C3010008C301000880
:10005000C3010008C3010008C3010008C301000870
:10006000C3010008C3010008C3010008C301000860
:10007000C3010008C3010008C3010008C301000850
:10008000C3010008750A0008C30100080000000051
:10009000000000000000000000000000C301000894
:1000A000C3010008C3010008C3010008C301000820
:1000B000C3010008C3010008C3010008C301000810
:1000C000C3010008C3010008C3010008C301000800
:1000D000C3010008E1390008C30100080000000066
:1000E000350B0008C3010008C30100080000000030
:1000F000000000000000000000000000C301000834
:1001000000000000C3010008C3010008C30100088B
:1001100000000000000000000000000000000000DF
:10012000C3010008C3010008810A0008C3010008D8
:10013000C3010008000000000000000000000000F3
:10014000000000000000000000000000C3010008E3
:10015000C3010008C3010008C3010008C30100086F
:10016000C3010008C30100080000000000000000F7
:10017000000000000000000000000000000000007F
:1001800000000000C30100080000000000000000A3
:10019000C3010008DFF80CD000F01AF9004800474E
:1001A000154D0008E80E0020064880470648004725
:1001B000FEE7FEE7FEE7FEE7FEE7FEE7FEE7FEE717
:1001C000FEE7FEE781330008950100080020704734
:1001D0002DE9F05F0546002092469B46884606467C
:1001E000814640241BE0284641464746224600F00F
:1001F000D4F853465A46C01A914110D311461846B6
:10020000224600F0BBF82D1A67EB01084F46224644
:100210000120002100F0B2F817EB00094E41201E2A
:10022000A4F10104DFDC484631462A464346BDE8D6
:10023000F09F40EA01039B0703D009E008C9121FA1
:1002400008C0042AFAD203E011F8013B00F8013B90
:10025000521EF9D27047D2B201E000F8012B491EBC
:10026000FBD270470022F6E710B513460A46044653
:100270001946FFF7F0FF204610BD00000FB400B58F
:1002800089B00BA800906A4603480A9900F096F8D6
:1002900009B05DF814FB0000600000202DE9FF5F4D
:1002A000D2E901A74FF00008916999461446DDF89C
:1002B00038B0464601988847054659EA0B0005D0F4
:1002C00009E0A169761C019888470546216A2846FD
:1002D00088470028F5D1681C03D05FEACA7005D0B2
:1002E00015E04FF0FF3004B0BDE8F09F2068011D1D
:1002F0002160D0F800800AE05FEACA7001D108F8F6
:10030000015BA169761C7F1E019888470546002F76
:100310001ADD681C18D0B9F1000F0DD0E81705EBF5
:10032000D060421120F01F0059F822102A1A012033
:1003300090400142E0D107E0BBF1000FDCD1216A1F
:10034000284688470028D7D0E16901988847BBF143
:10035000000F07D1002E05DD5FEACA7002D100212F
:1003600088F80010A068B84203DDBBF1000F03D08D
:1003700017B16FF00100B6E73046B4E7202A04DB7E
:10038000203A00FA02F1002070479140C2F12003A8
:1003900020FA03F3194390407047202A04DB203AE7
:1003A00021FA02F00021704721FA02F3D040C2F195
:1003B000200291400843194670470000024B9361A8
:1003C000024BD36100F032B88D47000811040008D9
:1003D000064C074D06E0E06840F0010394E8070092
:1003E00098471034AC42F6D3FFF7D8FE045000080B
:1003F00024500008094910B508784C1C18B1401E5B
:100400000870205C10BD00210720ABBE207010BD1D
:1004100002490878421C0A707047000064000020FE
:10042000026811441378016018467047D16004498E
:1004300051610449116200211161114600F00AB8AE
:100440002104000849040008C0B24FF4F05100F044
:1004500097B900002DE9F34F8BB04FF0000801F180
:100460000C000C464FF0010B46460DF1080A0190B6
:100470006269012101989047051E2DD0252D2CD0B1
:10048000216A8847C0B16269012101989047216AB9
:1004900088470028F7D1411E62690198904700E023
:1004A000761CA1690B988847216A88470028F7D1F4
:1004B000E1690B988847DBE7A1690B9888470746F5
:1004C000A84201D1761CD3E7E1690B9888477F1CCD
:1004D00002D1B8F1000F6FD046E1002762693D46B6
:1004E0003946019890472A2804D162690121019870
:1004F00090470125DFF884926269012101989047B5
:10050000A0F130010A290AD24F45E5DC07EB87014B
:1005100000EB4107303FDFD445F01005ECE7E9067A
:1005200001D46FF000476C280AD04C2814D06828FA
:1005300015D06A280DD074281CD07A281AD01DE056
:1005400062690121019890476C2802D045F00405AA
:1005500014E045F002050DE045F020050AE062696F
:10056000012101989047682802D045F0080505E070
:1005700045F400656269012101989047C4E901577B
:1005800065283DD019DC58287AD00CDC452837D0B6
:1005900004DC252826D0412831D131E046282FD04F
:1005A00047282CD12CE05B2877D0612828D06328FD
:1005B0007CD0642823D15AE0D0E06F2848D008DCF2
:1005C00066281DD067281BD0692821D06E2816D137
:1005D00027E0702845D0732868D0752847D0782840
:1005E0000DD14DE0A1690B988847054625283FF4B9
:1005F00069AFE1690B9888476D1C3FF46AAFB3E0BF
:1006000023466A466FF001000B99AFF300809EE02D
:1006100045F040006060A80723464FF0000236D442
:100620003EE0E8077FF447AF2068011D21600068C5
:10063000290501D506701BE7290701D5068017E7B4
:10064000A90703D5F117C0E9006111E706600FE7BC
:1006500045F040006060A80723464FF0080216D41A
:100660001EE040F60E0125EA0100606016E045F04C
:1006700040006060A80723464FF00A0207D40FE04D
:1006800045F040006060A80708D5234610226FF0AF
:1006900001000B99AFF3008059E007E023461022D8
:1006A0006FF001000B99AFF3008050E04FF00009AC
:1006B0004F464B46632802D05B2806D040E0E80650
:1006C00001D40120A06001273AE06269012101986C
:1006D00090475E2805D14FF00109626949460198AB
:1006E0009047216939B900210A46534643F8212031
:1006F000491C0829FADBB0B3216969B9C11700EBBD
:10070000D16253110AEB830122F01F02821A0120E9
:100710000B68904003430B60626901210198904788
:100720005D28E8D1B9F1000F09D00020514651F8F9
:100730002020D24341F82020401C0828F7DB02ABE0
:10074000224600976FF001000B99FFF7A7FD0028E4
:100750000CDA401C08D1BBF1000F05D04FF0FF3080
:100760000DB0BDE8F08FFFE74046F9E7E90701D19A
:1007700008F1010806444FF0000B79E6CCCCCC0C14
:100780007F2801D9002208E0064A02EB5002C00788
:10079000127800D1120902F00F02012090400840A7
:1007A00070470000C44F0008F0B520A193B00FC9F6
:1007B00006AC84E80F0021A10AAC0FC984E80F0041
:1007C00022A30EAC0FCB84E80F002448009007232F
:1007D000012206A9022003F019FE20BB1F480026B3
:1007E000801C0124102502960590CDE90354CDE923
:1007F0000056A0F10E0714230AAA0221B88903F0BB
:10080000AAFD80B907F11000CDE904400C20CDE924
:100810000006CDE9024514230EAA0221B88903F08F
:100820009AFD002800D0472013B0F0BD669A0C2036
:100830000008969EE2119EB1E0F273D9669A0C20F0
:100840000008969EE2119EB1E1F273D9669A0C20DF
:100850000008969EE2119EB1E2F273D910000020CA
:10086000094B30B41C8A641CA04203D130BC104632
:1008700004F090BAD989891C884203D110780128E4
:1008800000D1587030BC70470400002070B50025BE
:10089000012801D9AD1E0FE0084951F82020084970
:1008A00001EB80142046226003F0CAF8204602F0D3
:1008B000DBFB08B16FF00305284670BD2C0000205B
:1008C000CC03002000F092BF054910B5054A31F86D
:1008D000101052F82000002200F052FF002010BD3E
:1008E000924F000824000020054910B5054A31F850
:1008F000101052F82000012200F042FF002010BD2D
:10090000924F000824000020054910B5054A31F82F
:10091000101052F8200000F003FF002010BD00006E
:10092000924F000824000020014901208870704780
:1009300000000020064910B5064A31F8101052F8A0
:10094000200000F0C1FE08B1002010BD012010BD44
:10095000944F000828000020F0B5044625480025E3
:1009600087B003682A4643F004030360006800F080
:1009700004000590204830F81400009002200290F6
:1009800003901E4850F82400A1B11D490191694609
:1009900000F038FD184804EB44020C3050F82410E5
:1009A0001648083000EB8200064600F0EBFB2F1FD4
:1009B00070B904E06946019200F024FD17E00E488A
:1009C0000021001D50F82420304600F053FC08B1EF
:1009D0003D460CE0084800220830A0F10C0650F813
:1009E0002410305700F096FF305700F061FF07B039
:1009F0002846F0BD30380240944F000828000020FF
:100A0000000011100D4910B50B4808600C48002477
:100A10000168491C016001290CD1084801F0ADFBB7
:100A200040B9064802F0B0FB044802F0FFFA08B1F2
:100A30006FF00704204610BD003001407403002011
:100A40001C00002038B54FF48053009313460A462B
:100A500001460024034801F075FC00B1A41F2046A4
:100A600038BD00007403002010B50020FFF75CFFC4
:100A700010BDFEE7014800F0CBB8000008020020DE
:100A8000014800F0C5B80000A80000200168182344
:100A9000CAB2103AB2FBF3F2054B6FF30901032A15
:100AA0009B5CC36500D9091D81650846704700003D
:100AB000BC4F000810B5014600208B698A6A4FF0D0
:100AC000C07453B1B3F5005F15D072B1012A0CD0D8
:100AD000022A0AD0032A09D104E01AB1012A06D059
:100AE000022A03D1C96AC90100D5012010BDC96A13
:100AF000A142FAD010BD002AF7D0012AF2D0022A72
:100B0000F3D0032AF3D010BD30B50468256825F46E
:100B100080252560046863608368402B036803D0E8
:100B200099600068C26030BD9A600068C16030BDE5
:100B300070470000014800F08FBB0000300000202B
:100B40007047000070B505460A4801224261C18025
:100B500009A003F051F805240DA0295D03F04CF81D
:100B6000641E002CF8DC2978BDE870400AA003F070
:100B700043B8000004000020436F6E6E6563746527
:100B80006420746F206465766963653A0000000034
:100B9000253032582D000000253032580A00000060
:100BA00070B5074C0025656106A003F025F801200B
:100BB00020706570A570E5702571657170BD0000CD
:100BC00004000020446973636F6E6E65637465642E
:100BD0000A000000044B1B895B1C984202D110469E
:100BE00004F0D8B8704700000400002090F83510D9
:100BF000022903D08021416501207047052180F83A
:100C000035100068016821F0010101600020704783
:100C10002DE9F84304464FF00009CDF800906348F1
:100C20004FF41651A56D0068B0FBF1F72E6894F8EB
:100C30005C10082000FA01F131420FD021680A68E7
:100C400052070BD50A6822F004020A6094F85C107F
:100C50008840A860606D40F00100606594F85C1009
:100C60004FF0010808FA01F0304208D021684969C4
:100C7000090604D5A860606D40F00200606594F834
:100C80005C1004208840304208D021680968890738
:100C900004D5A860606D40F00400606594F85C10B5
:100CA00010208840304218D021680968090714D5FF
:100CB000A86020680168490304D50068000308D5CE
:100CC000A16C07E00168C90503D4016821F008019F
:100CD0000160216C09B12046884794F85C102020FF
:100CE0008840304231D021680968C9062DD5A860F6
:100CF00094F8350005282068016806D0490347D5D7
:100D0000006800031DD4616C1CE021F01601016035
:100D10002068416921F080014161206C08B9A06C14
:100D200020B12068016821F00801016094F85C108E
:100D30003F208840A86084F8349084F83580216D85
:100D40001FE0E16B09B120468847606D00282BD079
:100D5000606DC00714D0052084F835002068016854
:100D600021F0010101600098401C0090B84203D8B6
:100D700020680068C007F6D184F8349084F8358084
:100D8000E16C002910D001B02046BDE8F0430847CF
:100D90000168C905D5D4016821F01001016084F80B
:100DA000349084F83580CCE7BDE8F8833C0000201F
:100DB0002DE9F041044600F019FD0546002C7CD0D9
:100DC000A249206888423ED0A049183188423AD0D2
:100DD0009E493031884236D09C494831884232D0D1
:100DE0009A49603188422ED09849783188422AD079
:100DF00096499031884226D09449A831884222D021
:100E0000934988421FD09249183188421BD090499B
:100E10003031884217D08E494831884213D08C49EE
:100E2000603188420FD08A49783188420BD0884996
:100E30009031884207D08649A831884203D0B82132
:100E400084A003F07FFC6068C0B1B0F1007F15D0D2
:100E5000B0F1806F12D0B0F1C06F0FD0B0F1006F61
:100E60000CD0B0F1206F09D0B0F1406F06D0B0F1D6
:100E7000606F03D0B92177A003F064FCA06838B19B
:100E8000402805D0802803D0BA2172A003F05AFC74
:100E9000E068B0F5007F04D018B1BB216DA003F06D
:100EA00051FC2069B0F5806F04D018B1BC2169A055
:100EB00003F048FC606958B100E071E0B0F5006FE4
:100EC00006D0B0F5805F03D0BD2162A003F03AFCEC
:100ED000A06948B1B0F5005F06D0B0F5804F03D0EF
:100EE000BE215CA003F02EFCE06940B1B0F5807F2C
:100EF00005D0202803D0BF2156A003F023FC206A90
:100F000060B1B0F5803F09D0B0F5003F06D0B0F534
:100F1000403F03D0C0214FA003F014FC606A0028BA
:100F200032D0042806D0C1214AA003F00BFC606A2D
:100F3000002829D0A06A48B1012807D0022805D08E
:100F4000032803D0C62143A003F0FCFBE06A60B194
:100F5000B0F5000F09D0B0F1807F06D0B0F1C07FAE
:100F600003D0C7213BA003F0EDFB206B60B1B0F5CF
:100F7000001F09D0B0F5800F06D0B0F5C00F03D028
:100F8000C82134A003F0DEFB002684F83460022080
:100F900084F835002068016821F0010101600EE04D
:100FA0000120BDE8F08100BF00F020FC401B0528B7
:100FB00005D920206065032084F83500F1E720681A
:100FC0000068C007F0D12268116830480140D4E9B8
:100FD00001031843D4E903352B43184363691843CD
:100FE000A3691843E3691843236A18430843616AF5
:100FF000042903D1D4E90B13194308431060206876
:101000004069656A20F0070128460D43012704283E
:101010000CD1A06A0543E06A40B12046FFF74AFDC3
:1010200020B14020606584F83570B9E720684561DB
:101030002046FFF72BFD94F85C203F219140816012
:10104000666584F835700020ABE700001060024050
:10105000106402402E2E5C447269766572735C5394
:10106000544D3332463478785F48414C5F4472695E
:101070007665725C5372635C73746D333266347878
:10108000785F68616C5F646D612E63003F8010F073
:101090002DE9F04789460446876D0025581E4FF616
:1010A000FF711E469046884204D34FF4E6711EA09D
:1010B00003F048FB94F8340001280DD0012084F897
:1010C000340094F835100020012907D084F834004A
:1010D00002252846BDE8F0870220FBE7022184F8BC
:1010E000351060653346424649462046FFF70CFD01
:1010F00094F85C103F208840B8602068016841F097
:10110000160101602068416941F080014161206C55
:1011100020B12068016841F0080101602068016881
:1011200041F001010160D4E72E2E5C4472697665BE
:1011300072735C53544D3332463478785F48414C77
:101140005F4472697665725C5372635C73746D336D
:1011500032663478785F68616C5F646D612E63001D
:1011600070B5044600F042FB0546601C02D00448FE
:101170000078044400F03AFB401BA042FAD370BD53
:101180004000002070B50C46054601293FD0022CD6
:101190003DD0042C3BD0082C39D0102C37D0202C3B
:1011A00035D0402C33D0802C31D0B4F5807F2ED078
:1011B000B4F5007F2BD0B4F5806F28D0B4F5006F64
:1011C00025D0B4F5805F22D0B4F5005F1FD0B4F510
:1011D000804F1CD0B4F5004F19D0B4F5803F16D025
:1011E000B4F5003F13D0B4F5802F10D0B4F5002F24
:1011F0000DD0B4F5801F0AD0B4F5001F07D0B4F5A8
:10120000800F04D040F2391104A003F09BFA15B10D
:1012100000202C6070BD012070BD00002E2E5C44AB
:101220007269766572735C53544D33324634787804
:101230005F48414C5F4472697665725C5372635CCF
:1012400073746D3332663478785F68616C5F65788B
:1012500074692E630000000005490A68002A05D061
:1012600002680A604068002800D00047704700000C
:10127000143C01400346002009B1012070475A6028
:10128000704700002DE9F05FDFF81C91DFF81CB11A
:101290000E460446484512D05C4510D0444884426E
:1012A0000DD0444884420AD04348844207D0434882
:1012B000844204D04FF4987141A003F043FA002017
:1012C00001234FF00F0A00BF03FA00F106EA0105FF
:1012D0008D4264D1494A20F003071744D7F80888A3
:1012E00082074FEA127C0AFA0CFE0EEA08024C450D
:1012F00002D14FF000081BE05C4502D14FF001081D
:1013000016E0DFF8AC80444502D14FF002080FE050
:10131000DFF8A080444502D14FF0030808E0DFF871
:101320009880444502D14FF0040801E04FF00708CF
:1013300008FA0CF8904515D1D7F808C82CEA0E0C1D
:10134000C7F808C82E4A1768AF431760121D176800
:10135000AF431760121D1768AF431760121D17685F
:10136000AF431760256847000322BA4095432560C4
:10137000C50804EB8505D5F820C047074FEAD768B4
:101380000AFA08F72CEA070CC5F820C0A5689543AF
:10139000A56065688D436560E1689143E160401C2C
:1013A000102891D3BDE8F09F0000024000040240E5
:1013B00000080240000C024000100240001C0240E5
:1013C0002E2E5C447269766572735C53544D3332D1
:1013D000463478785F48414C5F4472697665725C48
:1013E0005372635C73746D3332663478785F68610E
:1013F0006C5F6770696F2E63000000000030014071
:10140000003C01402DE9F84F044691480D468442C6
:1014100012D0904884420FD08F4884420CD08F481D
:10142000844209D08E48844206D08E48844203D03C
:10143000B3218DA003F086F928680104090C01D0BE
:10144000000C03D0B42188A003F07CF96868F8B1DF
:1014500001281DD011281BD0022819D0122817D01E
:101460009049884214D09049884211D08F498842CF
:101470000ED08F4988420BD08E49884208D08E49C1
:10148000884205D0032803D0B52177A003F05AF98C
:10149000A86838B1012805D0022803D0B62172A06F
:1014A00003F050F900264FF0010B00BF0BFA06F0D5
:1014B0002F688246074057457ED16868022801D0D0
:1014C000122828D12869C8B10C2817D0012815D0B6
:1014D000022813D0042811D005280FD006280DD0DB
:1014E00007280BD0082809D00A2807D0092805D0DA
:1014F0000F2803D0C7215CA003F024F9F00804EB07
:101500008002106A7107CB0E0F2199408843296928
:1015100099400143116220687200032101FA02F828
:101520002979914601F0030120EA080001FA09F146
:10153000014321606868012805D0022803D01128E2
:1015400001D012281CD1E86848B1012807D0022830
:1015500005D0032803D0DA2143A003F0F3F8A068F4
:10156000E96820EA080001FA09F10143A160606816
:10157000297920EA0A00C1F30011B14001436160FA
:10158000E068A96820EA080001FA09F10143E16076
:101590006868C00056D54948016841F4804101603F
:1015A000006826F0030100F48040009044480B18C6
:1015B000D3F80808B10700E044E00A0F0F2191407A
:1015C000884323498C4201D1002114E021498C42F7
:1015D00001D101210FE020498C4201D102210AE012
:1015E0001E498C4201D1032105E01D498C4201D1E5
:1015F000042100E0072191400143C3F80818314954
:1016000008686A68B843D20300D5384308602D499A
:10161000091D08686A68B843920300D5384308601A
:101620002849083108686A68B843D20200D53843AF
:10163000086024490C3108686A68B843920200D5F2
:1016400038430860761C102EFFF430AFBDE8F88FE9
:10165000000002400004024000080240000C02406A
:1016600000100240001C02402E2E5C447269766518
:1016700072735C53544D3332463478785F48414C32
:101680005F4472697665725C5372635C73746D3328
:1016900032663478785F68616C5F6770696F2E635B
:1016A00000000000000011100000211000003110A7
:1016B00000001210000022100000321044380240D6
:1016C00000300140003C014070B50C00054604D1DB
:1016D0004FF4BF7103A003F035F82869204000D013
:1016E000012070BD2E2E5C447269766572735C5366
:1016F000544D3332463478785F48414C5F447269C8
:101700007665725C5372635C73746D3332663478E1
:10171000785F68616C5F6770696F2E63000000001E
:1017200070B50C00054604D14FF4DB7105A003F041
:1017300009F8686934EA000001D0AC6170BD20048A
:10174000A86170BD2E2E5C447269766572735C531D
:10175000544D3332463478785F48414C5F44726967
:101760007665725C5372635C73746D333266347881
:10177000785F68616C5F6770696F2E6300000000BE
:1017800070B515460C00064604D140F29F1108A022
:1017900002F0D8FF45B1012D04D04FF4D07104A060
:1017A00002F0D0FFB46170BD2004B06170BD0000D4
:1017B0002E2E5C447269766572735C53544D3332DD
:1017C000463478785F48414C5F4472697665725C54
:1017D0005372635C73746D3332663478785F68611A
:1017E0006C5F6770696F2E630000000001488068BD
:1017F00070470000400000200248816802781144D0
:1018000081607047400000200B4810B5016841F42A
:1018100000710160016841F480610160016841F478
:1018200080710160032000F0C5F8002000F006F888
:1018300000F024F8002010BD003C024070B50D4DB2
:1018400004464FF47A712878B1FBF0F00A49096830
:10185000B1FBF0F000F08AFE48B9102C07D200224C
:101860002146501E00F056F800206C6070BD01202B
:1018700070BD0000400000203C0000200B4882B0FA
:10188000016841F480410160006800F480400090EC
:101890000648001F016841F080510160006800F0B7
:1018A00080500090072002B000F084B84438024015
:1018B00010B5040003D5BE2107A002F043FF002CA1
:1018C00009DB04F01F01012088406109890001F152
:1018D000E021C1F8000110BD2E2E5C4472697665CE
:1018E00072735C53544D3332463478785F48414CC0
:1018F0005F4472697665725C5372635C73746D33B6
:1019000032663478785F68616C5F636F7274657893
:101910002E63000070B515460C460646102A03D308
:10192000AA2114A002F00EFF102C03D3AB2111A0AA
:1019300002F008FF1E480068C0F30223C3F107024B
:101940002046042A00D90422191D072901D20023A8
:1019500000E0DB1E012404FA02F1491E0140994017
:101960009C40641E2C4021433046BDE8704002F08C
:1019700053B900002E2E5C447269766572735C5315
:10198000544D3332463478785F48414C5F44726935
:101990007665725C5372635C73746D33326634784F
:1019A000785F68616C5F636F727465782E630000A6
:1019B0000CED00E010B5044607280BD0062C09D02A
:1019C000052C07D0042C05D0032C03D0922108A0AD
:1019D00002F0B8FE154904F0070208684FF6FF034D
:1019E000184040EA0220124A1043086010BD00006F
:1019F0002E2E5C447269766572735C53544D33329B
:101A0000463478785F48414C5F4472697665725C11
:101A10005372635C73746D3332663478785F6861D7
:101A20006C5F636F727465782E6300000CED00E0EC
:101A30000000FA052DE9F0470E4604007DD020682D
:101A4000401E0E2804D94FF410717AA002F07AFEDD
:101A500096B1012E10D0022E0ED0032E0CD0042EE3
:101A60000AD0052E08D0062E06D0072E04D040F24C
:101A7000412170A002F066FEDFF8F081D8F8000086
:101A8000F7B200F00F00B04207D288F80070D8F823
:101A9000000000F00F00B0424FD12068744D810764
:101AA00029D5400703D5286840F4E0502860207805
:101AB000000703D5286840F460402860A068A0B102
:101AC000802812D0902810D0A0280ED0B0280CD09A
:101AD000C0280AD0D02808D0E02806D0F02804D0AA
:101AE0004FF4197153A002F02DFE2868A16820F070
:101AF000F000084328602078C00743D0DFF87091D9
:101B00006068A9F1080988B1012822D0022824D0F0
:101B1000032822D040F26B2146A002F013FE606839
:101B2000012816D0022818D0032816D0D9F80000B2
:101B30008007002833DA286800E030E0616820F090
:101B4000030008432860FFF751FE814641F2883ABE
:101B500011E0D9F800008003EBE7D9F8000080011C
:101B6000E7E700BFFFF742FEA0EB0901514502D9AC
:101B70000320BDE8F0872868616800F00C00B0EB36
:101B8000810FEFD1D8F80010404601F00F01B142AB
:101B900007D90770006800F00F00B04201D00120A3
:101BA000E7E720784FF4805640074FF4A0574FF4F2
:101BB000C0584FF4E05914D5E06860B1B0420AD083
:101BC000B84208D0404506D0484504D040F2A9218B
:101BD00018A002F0B7FD2868E16820F4E05008433F
:101BE00028602078000715D5206960B1B0420AD07E
:101BF000B84208D0404506D0484504D04FF42C7177
:101C00000CA002F09FFD2868216920F4604040EAA2
:101C1000C100286000F052F82968164AC1F3031188
:101C2000515CC840144908600020FFF707FE0020FF
:101C30009FE700002E2E5C447269766572735C53D8
:101C4000544D3332463478785F48414C5F44726972
:101C50007665725C5372635C73746D33326634788C
:101C6000785F68616C5F7263632E6300003C0240C2
:101C700008380240A44F00083C00002004480549F1
:101C800000680968044AC1F38221515CC84070476A
:101C90003C00002008380240B44F000804480549C1
:101CA00000680968044AC1F34231515CC84070477A
:101CB0003C00002008380240B44F0008154810B519
:101CC000006810F00C02144813D04110042A0FD001
:101CD000082A0ED10F4C241F2268236802F03F020D
:101CE0005B0207D52068C0F38810A0FB010106E065
:101CF000084610BD2168C1F38811A1FB0001002333
:101D0000FEF766FA2168C1F30141491C4900B0FBA6
:101D1000F1F010BD083802400024F4002DE9F84F1E
:101D200004007DD020680F2803D9E821F2A002F03A
:101D300009FD2078DFF8F8B3FE4DC00756D0606883
:101D40004FF480364FF4A02738B1B04205D0B842E6
:101D500003D0ED21E8A002F0F5FCDBF800105846B6
:101D6000C1F38101012909D00068C0F38100022874
:101D70000BD1EF48001F0068400206D52868800399
:101D800034D560680028CCD030E06068B04203D120
:101D9000286840F480300CE0B842286803D140F451
:101DA00080202860F4E720F480302860286820F440
:101DB00080202860606860B1FFF718FD064604E0E7
:101DC000FFF714FD801B64287ED828688003F7D5B0
:101DD0000CE0FFF70BFD064605E000BFFFF706FD30
:101DE000801B6428F0D828688003F7D42078DFF8B7
:101DF000488380074FF0000956D5E06830B10128CC
:101E000004D040F21F11BCA002F09CFC20691F28E6
:101E100004D94FF49071B8A002F094FC584600E049
:101E200092E0DBF8001011F00C0F09D00068C0F34D
:101E30008100022811D1BE48001F006840020CD466
:101E40002868800702D5E06801287DD128682169CB
:101E500020F0F80040EAC10016E0E068B0B10120CF
:101E6000C8F80000FFF7C2FC064604E0FFF7BEFC1E
:101E7000801B0228A8D828688007F7D5286820F09A
:101E8000F801206941EAC00028600DE0C8F8009020
:101E9000FFF7ACFC064604E0FFF7A8FC801B022815
:101EA00092D828688007F7D4207800072ED5A04E56
:101EB000A24F60696C36D0B1012808D04FF4B071E0
:101EC0008DA002F03FFC00E04DE1606978B1012097
:101ED0003860FFF78BFC074605E000BFFFF786FC84
:101EE000C01B0228C6D830688007F7D50EE0C7F8B7
:101EF0000090FFF77BFC074605E000BFFFF776FC8C
:101F0000C01B0228B6D830688007F7D42078400775
:101F100076D5A068002740B1012806D0052804D056
:101F20004FF4C67174A002F00DFCDFF804A20AF1B0
:101F3000380ADAF80000C0000DD4DAF8001041F0D9
:101F40008051CAF8001000E0D4E0DAF80000012760
:101F500000F0805000907A4E3068C00511D430688F
:101F600040F480703060FFF741FC009006E000BF55
:101F7000FFF73CFC0099401A022891D83068C00550
:101F8000F6D56B4EA068683601280FD0052830685A
:101F900010D020F001003060306820F00400306084
:101FA000A068B8B1FFF722FC00900FE0306840F065
:101FB0000100F4E740F004003060F7E7FFF716FC9B
:101FC0000099411A41F2883081428BD830688007ED
:101FD000F4D50EE0FFF70AFC009007E0FFF706FCDF
:101FE0000099411A41F2883081428BD830688007CD
:101FF000F4D42FB1DAF8001021F08051CAF80010A3
:10200000A069002875D0012809D0022807D040F225
:10201000CF1139A002F096FBA0690028F2D0DBF8BE
:102020000000C0F38100022864D0A069022805D016
:10203000C8F86090FFF7DAFB044697E0E06938B132
:10204000B0F5800F04D04FF4EC712BA002F07AFBB6
:10205000206A3F2804D940F2D91127A002F072FB70
:10206000606A3238B0F5BF7F04D94FF4ED7122A019
:1020700002F068FBA06A02280AD0042808D00628CB
:1020800006D0082804D040F2DB111BA002F05AFB56
:10209000E06A801E0D2804D94FF4EE7116A002F0FC
:1020A00051FB4746C8F86090FFF7A0FB064604E0E6
:1020B000FFF79CFB801B022855D828688001F7D4C5
:1020C000D4E907010843A16A1E4A490802EB01410D
:1020D000626A41EA8211084394F82C1040EA0161D7
:1020E0001348001F016001203866FFF77FFB04469C
:1020F0002FE03EE03FE000002E2E5C4472697665E2
:1021000072735C53544D3332463478785F48414C97
:102110005F4472697665725C5372635C73746D338D
:1021200032663478785F68616C5F7263632E630037
:10213000083802400038024000004742800E474203
:10214000007000400000FFFFFFF750FB001B02285B
:1021500009D828688001F7D50BE000BFFFF746FBE0
:10216000001B022802D90320BDE8F88F28688001EF
:10217000F4D40020F8E70120F6E790F8510070470A
:1021800070B5040069D05C49206888420DD05B4975
:1021900088420AD05A49884207D05A49884204D016
:1021A00040F23F1158A002F0CDFA606838B1B0F5A6
:1021B000827F04D04FF4A07153A002F0C3FAA0684C
:1021C00050B1B0F5806F07D0B0F5004F04D040F2A9
:1021D00041114DA002F0B6FAE068B0F5006F05D0ED
:1021E00020B14FF4A17148A002F0ACFAA069B0F59B
:1021F000007F08D038B1B0F5802F04D040F24311F1
:1022000041A002F09FFAE06990B1082810D0102890
:102210000ED018280CD020280AD0282808D0302822
:1022200006D0382804D04FF4A27137A002F08AFA01
:10223000206A30B1802804D040F2451132A002F06B
:1022400081FA606A58B110281BD04FF4A3712EA0F8
:1022500002F078FA606A10B113E0012070BD2069C5
:1022600030B1022804D040F2491127A002F06AFAE6
:10227000606930B1012804D04FF4A57122A002F0AA
:1022800061FA0025A56294F8510020B984F85050F5
:10229000204600F055F8022084F8510020680168BB
:1022A00021F040010160D4E901010843D4E903129F
:1022B0001143084361690843218B01F4007108430D
:1022C000E1690843216A0843A16A0843216808605C
:1022D000A069042101EA1040616A0843216848604E
:1022E0002068C16921F40061C1616565012084F83D
:1022F0005100002070BD0000003001400038004057
:10230000003C0040003401402E2E5C44726976652A
:1023100072735C53544D3332463478785F48414C85
:102320005F4472697665725C5372635C73746D337B
:1023300032663478785F68616C5F7370692E630011
:10234000704700002DE9F84F04460A9E80681D463C
:1023500092468B464FF00109002720B140F25641CA
:1023600074A002F0EFF994F8500001280ED001207B
:1023700084F85000FFF73AFA804694F851006168FB
:1023800001280CD0B1F5827F07D102E00220BDE820
:10239000F88FA16809B9042801D00227C2E0BBF177
:1023A000000F27D0BAF1000F24D01DB394F85100CC
:1023B000042802D0052084F8510000206065C4F88C
:1023C00038A0E587A587C4F830B0E586A5862064E7
:1023D000606420680168490603D4016841F0400147
:1023E0000160E068B0F5006F606805D0F0B3012DC2
:1023F00046D07FE0012795E008B1012D39D1206B4F
:1024000021680088C860206B801C2063E08E401E1D
:10241000E0862EE02068816889070FD5E18E69B1DA
:10242000B9F1010F0AD1216B0988C160206B801CB2
:102430002063E08E401EE0864FF00009206881682E
:10244000C9070CD0E18F51B1C068A16B0880A06BA7
:10245000801CA063E08F401EE0874FF00109FFF76A
:10246000C5F9A0EB0800B04203D300E008E0701CFF
:1024700050D1E08E0028CDD1E08F0028CAD13FE0B6
:10248000206B216800780873206B401C2063E08E6D
:10249000401EE0862EE02068816889070FD5E18E16
:1024A00069B1B9F1010F0AD1216B09780173206B71
:1024B000401C2063E08E401EE0864FF0000920683B
:1024C0008168C9070CD0E18F51B1C068A16B087059
:1024D000A06B401CA063E08F401EE0874FF0010915
:1024E000FFF784F9A0EB0800B04202D3701C01D0C2
:1024F00010E07EB1E08E0028CDD1E08F0028CAD157
:1025000042463146204600F07DFE28B101272020BA
:10251000606507E0032705E0A06818B92068C16876
:1025200080680090012084F85100002084F8500059
:1025300038462CE72E2E5C447269766572735C53C4
:10254000544D3332463478785F48414C5F44726969
:102550007665725C5372635C73746D333266347883
:10256000785F68616C5F7370692E630010B5401E00
:10257000B0F1807F01D3012010BD4FF0E0246061F5
:102580000F21601701F048FB0020A06107202061A7
:10259000002010BD7047000070B502680446106846
:1025A000D168536910F00F0F50D003F0010501F40A
:1025B000907635435DD0C20705D0CA0503D5E26BDE
:1025C00042F00102E263420705D5DA0703D0E26B6D
:1025D00042F00202E263820705D5DA0703D0E26B1C
:1025E00042F00402E263020705D5DA0703D0E26B8A
:1025F00042F00802E263E26B002A33D0800604D581
:10260000880602D5204600F068FF20684069E16B2B
:10261000C0F38010090700D428B3204600F046FF1D
:102620002068416949061AD5416921F0400141619C
:10263000606BA0B11B490165606BFEF7D7FA0028FB
:1026400010D0606B016DBDE870400847830610D55F
:102650008B060ED52046BDE8704000F03EBF2046F8
:10266000FFF798FF70BD2046FFF794FF0020E0635E
:1026700070BD030606D50B0604D52046BDE87040A4
:1026800001F018B94006F3D54806F1D5D1682046C7
:1026900021F04001D160202184F8391000F048FA7F
:1026A00070BD0000D533000870B5040020D0A069CB
:1026B00035490028354A364B20681BD088420AD05D
:1026C000904208D0984206D040F2491131A002F061
:1026D00039F8A069C8B1A069B0F5807F15D0B0F510
:1026E000007F12D0B0F5407F0FD04FF4A57109E004
:1026F000012070BD884208D0904206D0984204D094
:102700004FF4A77123A002F01DF8A06838B1B0F50E
:10271000805F04D04FF4A8711EA002F013F8E069A6
:1027200038B1B0F5004F04D040F2511119A002F0B9
:1027300009F894F83900002520B984F8385020466B
:1027400000F046F8242084F839002068C16821F49C
:102750000051C160204600F00BFF2068016921F4A0
:10276000904101612068416921F02A01416120689E
:10277000C16841F40051C160E563202084F839004C
:1027800084F83A00002070BD001001400044004071
:10279000001401402E2E5C447269766572735C539E
:1027A000544D3332463478785F48414C5F44726907
:1027B0007665725C5372635C73746D333266347821
:1027C000785F68616C5F756172742E630000000051
:1027D00070B586B0064614216846FDF743FD2449CE
:1027E0003068884242D123480025016841F0100139
:1027F0000160006800F0100005901E481438016860
:1028000041F0010101600068694600F00100059097
:102810004FF4C0600090022001900120CDE9020534
:10282000072004901448FEF7EDFD154C1348206076
:102830004FF00060C4E901054014C4E90350800072
:1028400060618000C4E90605256220466562FEF7E6
:10285000AFFA08B1FEF774F974630022114625201F
:10286000A663FFF757F82520FFF722F806B070BDE2
:102870000010014044380240000002404064024021
:10288000A80000202DE9F843044690F83A00994644
:1028900016460D4620284FD195B18EB194F83800D8
:1028A000012849D0012084F838000027E76322205E
:1028B00084F83A00FEF79AFFA6858046E68531E067
:1028C0000120BDE8F883E08D401EE085A068434606
:1028D000B0F5805F4FF000024FF020012046CDF8A8
:1028E000009004D001F017F898B10320E9E701F057
:1028F00012F80028F9D1206900282068406803D028
:10290000C1B225F8011B0DE0C0F3080125F8021B38
:1029100008E0206900282068406801D000F07F00AE
:1029200005F8010BE08D0028CDD1202084F83A0075
:1029300084F838700020C4E70220C2E7F8B50446E6
:1029400090F83A0020283CD1C1B3BAB394F83800CB
:10295000012836D0012084F83800A162A285002524
:10296000E563222084F83A00636B1748D863636BF1
:1029700016481864636B1648D864606B1346056587
:102980000846666B216802463046091DFEF780FB4B
:10299000206801684168009184F83850C16841F4AA
:1029A0008071C1602068416941F001014161206886
:1029B000416941F0400141610020F8BDFFE701207D
:1029C000FBE70220F9E700002F3400086B34000811
:1029D000E533000810B5FF220449054800F068F807
:1029E000BDE81040FF21014802F0ECB908010020C9
:1029F000CC03002070472DE9F843044690F83900D5
:102A00001F4616460D46202850D1A5B19EB194F818
:102A1000380001284AD0012084F838004FF000081F
:102A2000C4F83C80212084F83900FEF7DFFEA6843C
:102A30008146E68426E00120BDE8F883E08C401E54
:102A4000E084A0684B46B0F5805F4FF000024FF085
:102A500080012046009703D000F05DFFE8B90DE04B
:102A600000F059FFC8B928882168C0F30800486001
:102A7000206908B16D1C05E0AD1C03E0216815F864
:102A8000010B4860E08C0028D8D14B460022402141
:102A90002046009700F03FFF08B10320CCE720203C
:102AA00084F8390084F838800020C5E70220C3E7A5
:102AB00070B5044690F83900202830D169B362B36C
:102AC00094F8380001282AD0012084F838002162C7
:102AD000A284E2840025E563212084F83900236B79
:102AE0001048D863236B10481864236B0F48D864D0
:102AF000206B134605652668206B321DFEF7C8FA69
:102B000021686FF04000086084F8385020684169FF
:102B100041F080014161002070BD012070BD0220A4
:102B200070BD000075340008A3340008E5330008C8
:102B30007047704710B5074C01212046FEF7A2FBF5
:102B400002212046FEF79EFBA1152046FEF79AFBC8
:102B5000002010BD0000024070B5154886B000246A
:102B6000016841F0010101600068012500F00100E9
:102B7000009505900F48CDE901040F4E6946304697
:102B8000FEF740FC28020090CDE90154694630462A
:102B90000394FEF737FC02200090CDE9015469460A
:102BA00030460394FEF72EFCFDF72CFF06B070BDF7
:102BB0003038024000001110000002402DE9F041C1
:102BC00086B00E460746FF2019A18DF81400D1E902
:102BD0000001CDE90301DFF86080002422460221D4
:102BE0004046FEF7CDFD052201A903A8FDF72AFF07
:102BF0009DF80400022812D1BDF807507DB1B542FE
:102C00000BD9354609E00122694605A8FDF71AFFF0
:102C10009DF800003855641CE4B2AC42F3D30122A5
:102C200002214046FEF7ACFD06B02046BDE8F0812B
:102C30000B000000000000000000024070B50A4DCB
:102C40004FF48074002221462846FEF799FD0520A6
:102C5000FEF786FA012221462846FEF791FD05205F
:102C6000FEF77EFA002070BD000002402DE9FF470C
:102C700089461FA18246D1E90001CDE90201FEF794
:102C8000B5FD1D4E05466FF001084FF0FF370024DB
:102C9000224602213046FEF773FD0522694602A84E
:102CA000FDF7D0FE9DF8000002280DD03C46012221
:102CB00002213046FEF764FDFEF798FD401B0F2809
:102CC0000FD96FF002040EE09DF801104846494507
:102CD00005D3024609495046FDF7B4FEE7E74446EE
:102CE000E5E7002CD3DB04B02046BDE8F087000008
:102CF0000A000000000000000000024068020020FE
:102D0000FEE700002DE9F0434CA08BB0D0E9007045
:102D100080464CA00121D0E900560020FDF71CFEA2
:102D20000020FDF7B3FD0020FDF704FE474C607066
:102D30000021474801F06EFD05A904A801F044FDFB
:102D400001F042FE6420FEF70BFABDF814209DF856
:102D5000101040A000F050FF9DF810004FF0010946
:102D6000302801D984F80090E078002832D0CDE9ED
:102D7000065606AA0621002001F0B5FC010002D08B
:102D800039A000F039FF01F0C3FB10B13EA000F004
:102D900033FFE27809A8012A227808A91DD0012A68
:102DA00029D003460A460AA95FF0030001F0C7F9DB
:102DB00010B13AA000F020FF00223D491023CDE9D8
:102DC0000032CDE9021907231146012001F023FA50
:102DD000D0B11CE0CDE90678CBE7012A04D0034648
:102DE0000A460AA90120E1E7CDE9001007220021E7
:102DF0000AAB012005E0CDE900100AAB0722002153
:102E0000042001F0D0F9D3E72AA000F0F5FEE07825
:102E1000012801D02DA006E034A000F0EDFEFDF762
:102E2000C3FC48B139A000F0E7FE0421012001F005
:102E300036FC0BB0BDE8F0833CA0F4E7EEEEB169E0
:102E400069690000696969EEEEB1000000000020C8
:102E5000914E000848577665722025642C2046570D
:102E60007665722025640A0053657474696E672064
:102E700042445F41444452206661696C656420307D
:102E800078253032782E0A00474154545F496E69E4
:102E900074206661696C65642E0A00004741505FCA
:102EA000496E6974206661696C65642E0A000000D1
:102EB00040E20100424C4520537461636B20496E2F
:102EC000697469616C697A65642E0A00434C4945EE
:102ED0004E543A20424C4520537461636B20496E36
:102EE000697469616C697A65640A000053455256D9
:102EF00045523A20424C4520537461636B20496E21
:102F0000697469616C697A65640A00004572726F60
:102F100072207768696C6520616464696E672073EC
:102F20006572766963652E0A00000000536572764B
:102F300069636520616464656420737563636573A8
:102F40007366756C6C792E0A0000000010B500F0F5
:102F5000C9FDBDE8104001F05BBE0000F0B587B0D0
:102F600014216846FDF77EF92B480024016841F0E2
:102F700004010160016801F004010591016841F05C
:102F800080010160016801F080010591016841F054
:102F900001010160016801F001010591016841F042
:102FA0000201016000681D4F00F002004FF49176AD
:102FB0000590002231463846FEF7E2FB4FF4005000
:102FC00000901748CDE9010469461648FEF71AFA41
:102FD000012515480095CDE9010469463846FEF7FC
:102FE00011FA0096CDE90154694638460394FEF77C
:102FF00009FA002211460620FEF78CFC0620FEF797
:1030000057FC002211462820FEF784FC2820FEF7FA
:103010004FFC07B0F0BD0000303802400000024015
:1030200000002110000802400000111010B50D49E9
:10303000016000244FF48271C0E90114C4604FF4B0
:1030400000720461C0E905421822C0E90724446205
:103050000A21C0E90A41FFF793F800B10124204694
:1030600010BD00000030014010B509490160002486
:103070004FF4E131C0E901140C22C460C0E90442FC
:103080008461C461FFF710FB00B10124204610BD2C
:103090000044004010B523488CB000240078D8B11B
:1030A00021A30DF11C0C0FCB8CE80F00002108466A
:1030B00001F01CFC05940394049407A80D210694C8
:1030C0000094CDE9011000234FF4805251101846AE
:1030D00001F0DBF80CB010BD17A000F08DFD1DA1B4
:1030E000D1E90001CDE907010020FDF7FDFB4FF418
:1030F000FA603C21CDE9041006902820CDE900407B
:1031000002904FF48040039407AB0022014600F088
:10311000D4FF0028DED011A000F06EFD6420FEF781
:103120001FF8D7E70300002009426C75654E52472F
:103130005F464F4546000000436C69656E7420434E
:10314000726561746520436F6E6E656374696F6E3E
:103150000A000000EEEEEE69696900004572726FC8
:1031600072207768696C65207374617274696E6728
:1031700020636F6E6E656374696F6E2E0A000000C7
:10318000FEE7704770470000F0B51B4887B0002489
:10319000016841F480510160006800F4805005909E
:1031A00015481438016841F001010160016801F01F
:1031B00001010591016841F00201016000680225EA
:1031C00000F002000590C020CDE9000502AA032608
:1031D000052782E8D00069460848FEF713F9082061
:1031E000CDE9000502AA694682E8D0000448FEF74E
:1031F00009F907B0F0BD0000443802400000024069
:103200000004024038B504461248134B0068B0FB76
:10321000F3F04FF47A73584300906068B0F5827F02
:103220000DD10B46009200228021204600F016F8B6
:1032300070B1606D40F020006065032038BD0098DB
:1032400030B1401E009020688068C0430006F6D56B
:10325000002038BD3C00002000366E012DE9F04111
:103260001D4617460E460446DDF8188008E0681C27
:1032700006D0FEF7BBFAA0EB0800A8420BD255B16E
:103280002068806836EA000030D00020B842EED1D5
:103290000020BDE8F0812068416821F0E001416034
:1032A0006068B0F5827F0BD1A068B0F5004F02D006
:1032B000B0F5806F04D12068016821F04001016001
:1032C000A06AB0F5005F09D12068016821F40051BF
:1032D00001602068016841F400510160012084F818
:1032E0005100002084F850000320D2E70120CDE7F0
:1032F0007047FEF781BA000030B593B030216846C0
:10330000FCF7B0FF14210CA8FCF7ACFF1A4800240E
:10331000016841F080510160006800F08050119018
:103320001648016821F4404141F400410160006801
:10333000022500F4404011900120039010200095D8
:1033400006950490CDE907404FF4A8700990042039
:103350000A9007200B906846FEF7E0FC0F20CDE9AD
:103360000C05E802CDE90E4002210CA81094FEF7EE
:1033700061FB13B030BD00004038024000700040D7
:103380001048016841F4700101600F48016841F084
:10339000010101600C4A00210832116002680B4BE8
:1033A0001A400260031D0A4A1A60026822F4802251
:1033B000026005480C3001600249580680390860F7
:1033C0007047000088ED00E000380240FFFFF6FE85
:1033D0001030002410B5806B0021C185C184FFF737
:1033E000D9F810BD70B5846B2068406994F8391025
:1033F000C0F3C0100025212904D118B1E58420466E
:1034000000F062F82068406994F83A10C0F3801028
:10341000222904D118B1E585204600F047F8E06B79
:1034200040F01000E0632046FFF7B4F870BD10B51F
:103430000146806B09680968C90513D40021C1855C
:103440000168CA6822F48072CA6001684A6922F081
:1034500001024A6101684A6922F040024A61202162
:1034600080F83A10FFF7B6FA10BD10B5806BFFF781
:10347000C1FA10BD10B50146806B09680968C9051D
:103480000CD40021C18401684A6922F080024A619B
:103490000068C16841F04001C16010BDFFF748FB02
:1034A00010BD10B5806BFFF744FB10BD0168CA6802
:1034B00022F49072CA6001684A6922F001024A61EE
:1034C000202180F83A1070470168CA6822F0C002D3
:1034D000CA60202180F83910704710B590F83A1072
:1034E000222901D0022010BD8168B1F5805F11D082
:1034F0000169002901681FD0496801F07F03816AD2
:103500004A1C82620B70C18D491E0904090CC185D9
:1035100018D02BE00269816A002A0268526805D03F
:10352000D2B20A80816A491C8162ECE7C2F30802C8
:103530000A80816A891CF7E74A68816A4B1C8362AA
:103540000A70E0E70168CA6822F02002CA600168D8
:10355000CA6822F48072CA6001684A6922F00102D6
:103560004A61202180F83A10FFF734FA002010BD9C
:103570002DE9F04104464068BC49884204D940F630
:10358000E531BBA001F0DEF8E06838B1B0F5005FCE
:1035900004D040F6E631B6A001F0D4F8206950B16D
:1035A000B0F5806F07D0B0F5C06F04D040F6E731BA
:1035B000AFA001F0C7F860694FF6F371084200D17F
:1035C00020B940F6E831AAA001F0BCF820680169F2
:1035D000E26821F44051114301612169A068E26968
:1035E00008436169114308432168CA6849F20C63C2
:1035F0009A430243CA6020684169A26921F440717C
:1036000011434161E2696425B2F5004FA748A8491A
:1036100022684FF032083FD08A4201D082427CD1EA
:10362000FEF73CFB00EBC00101EB00106168890074
:10363000B0FBF1F6FEF732FB00EBC00101EB00102E
:1036400061688900B0FBF1F0B0FBF5F06FF0180194
:10365000484306EB800108EB0110B0FBF5F000F0E9
:10366000F006FEF71BFB00EBC00101EB00106168E8
:103670008900B0FBF1F0B0FBF5F006EB0016FEF7A9
:103680000DFB00EBC00101EB001061688900B0FB8D
:10369000F1F7FEF703FBD2E08A4201D082423DD12E
:1036A000FEF7FCFA00EBC00101EB00106168490075
:1036B000B0FBF1F0B0FBF5F00601FEF7EFFA00EB1E
:1036C000C00101EB001061684900B0FBF1F7FEF7A3
:1036D000E5FA00EBC00101EB001061684900B0FBA6
:1036E000F1F0B0FBF5F06FF01801484307EB8001F3
:1036F00008EBC100B0FBF5F000F0F80006EB400667
:10370000FEF7CCFA00EBC00101EB00106168490044
:10371000B0FBF1F7FEF7C2FA3CE055E0FEF7AEFA77
:1037200000EBC00101EB001061684900B0FBF1F053
:10373000B0FBF5F00601FEF7A1FA00EBC00101EBCA
:10374000001061684900B0FBF1F7FEF797FA00EB53
:10375000C00101EB001061684900B0FBF1F0B0FB63
:10376000F5F06FF01801484307EB800108EBC1004A
:10377000B0FBF5F000F0F80006EB4006FEF77EFA2D
:1037800000EBC00101EB001061684900B0FBF1F7EC
:10379000FEF774FA00EBC00101EB0010616849000C
:1037A000B0FBF1F0B0FBF5F06FF01801484307EB08
:1037B000800108EBC100B0FBF5F000F007002168C4
:1037C00030448860BDE8F081FEF758FA00EBC00194
:1037D00001EB001061688900B0FBF1F6FEF74EFACC
:1037E00000EBC00101EB001061688900B0FBF1F053
:1037F000B0FBF5F06FF01801484306EB800108EBD1
:103800000110B0FBF5F000F0F006FEF737FA00EB20
:10381000C00101EB001061688900B0FBF1F0B0FB62
:10382000F5F006EB0016FEF729FA00EBC00101EBFC
:10383000001061688900B0FBF1F7FEF71FFA00EB9A
:10384000C00101EB001061688900B0FBF1F0B0FB32
:10385000F5F06FF01801484307EB800108EB011009
:10386000B0FBF5F000F00F00A9E70000A037A000C2
:103870002E2E5C447269766572735C53544D3332FC
:10388000463478785F48414C5F4472697665725C73
:103890005372635C73746D3332663478785F686139
:1038A0006C5F756172742E630000000000140140AB
:1038B0000010014090F83910212901D002207047F2
:1038C0008168B1F5805F016A0BD04A1C0262026810
:1038D00009785160C18C491E0904090CC1840ED0BD
:1038E00017E009880268C1F30801516001690029E5
:1038F000016A02D0491C0162ECE7891CFBE7016800
:10390000CA6822F08002CA600068C16841F04001C4
:10391000C160002070472DE9F041984617460E46D9
:103920000446069D1DE0681C1BD02DB1FDF75EFF0F
:10393000A0EB0800A84214D92068C16821F4D07116
:10394000C1602068416921F001014161202084F8B3
:10395000390084F83A00002084F838000320BDE8DC
:10396000F0812068006836EA000004D00020B842E8
:10397000D9D00020F3E70120F9E7000038B5154958
:1039800000200A6842F480020A600968134C01F4BE
:1039900080010091104921604FF00061C4E90110DD
:1039A0008914C4E903106061A061E0612062606273
:1039B0002046FDF7FDF9A4F1400000224463A06316
:1039C00011463A20FDF7A6FFBDE838403A20FDF742
:1039D0006FBF00003038024040640240A800002061
:1039E0000148FEF7D9BD000068000020114808B565
:1039F0000268002142F01002026000680E4A00F0E6
:103A0000100000900D4802604FF4E132C0E901213E
:103A10000C22C160C0E904128161C161FEF744FE5D
:103A2000002211462520FDF775FFBDE8084025203E
:103A3000FDF73EBF443802400010014068000020FE
:103A400070B50646224886B00025016841F4003171
:103A50000160006800F4003005901D4810380168CE
:103A600041F0010101600068694600F00100059025
:103A70000C2000900220CDE901050720CDE903507C
:103A80001448FDF7BFFC154C134820604FF0006050
:103A900060604020C4E9020500012061800060618F
:103AA0008000C4E90605256220466562FDF780F9BD
:103AB00008B1FDF745F83463002211461120A663D2
:103AC000FDF728FF1120FDF7F3FE06B070BD0000E2
:103AD0004038024000000240A0600240080200207E
:103AE000FEE700002DE9F043354D85B02878354CD0
:103AF0004FF0000938B1FFF7CDFA85F800900020AB
:103B0000FCF718FF6070E0782F4DDFF8C080E8B94F
:103B100028682F4E2F4F08B1307820B1286838B16F
:103B2000387818B104E001F08FF901E001F068F98C
:103B3000286858B1307848B1387838B198F8000022
:103B400020B90020FCF7C0FE00F0FEFDA0780028A0
:103B500032D03220FDF704FB0020FCF7EBFE617849
:103B6000C9B100218842F7D03220FDF7F9FA286860
:103B700058B198F8000040B1142217A16846FCF72C
:103B800058FB1421684601F01DF9184890F83A00D6
:103B9000202802D00EE00121E4E7154915A0FCF72A
:103BA0006DFB134913A000F027F8FF2210490F48BE
:103BB000FEF7C4FE84F8029005B0BDE8F083000073
:103BC0000400002000000020180000200500002054
:103BD00008000020090000203031323334353637F8
:103BE00038394142434445464748494A6800002025
:103BF00008010020257300000FB4054B10B503A980
:103C0000044A029800F028F810BC5DF814FB00008C
:103C1000A54700085C0000200907090E002804DB06
:103C200000F1E02080F80014704700F00F0000F170
:103C3000E02080F8141D704702E008C8121F08C178
:103C4000002AFAD170477047002001E001C1121F1D
:103C5000002AFBD1704700002DE9FF4F8DB00F46C1
:103C60000546002606E025280BD0DDE90F12904717
:103C70006D1C761C28780028F5D111B03046BDE8BF
:103C8000F08F0024A246A1460122EC4900E0044343
:103C900015F8013F203B02FA03F00842F7D12878DB
:103CA0002A2810D06FF02F022878A0F130010929BE
:103CB00014D80AEB8A0102EB410144F0020400EB44
:103CC000010A6D1CF0E701CF5FEA000A03D544F456
:103CD0000054CAF1000A44F002046D1C28782E2812
:103CE00017D115F8010F44F004042A280ED06FF004
:103CF0002F022878A0F1300109290AD809EB89019F
:103D000002EB410100EB01096D1CF2E757F8049B3F
:103D10006D1C28786C280FD006DC4C2817D068283A
:103D20000DD06A2814D104E0742810D07A280FD15D
:103D30000DE044F400140AE044F4801401E044F47B
:103D400040146978814202D104F580146D1C6D1C09
:103D50002A786E2A1FD00CDC632A31D004DC002ABA
:103D60008BD0582A11D1A3E0642A68D0692A0CD1DB
:103D700065E0732A2ED004DC6F2A73D0702A04D138
:103D80009BE0752A6FD0782A6ED01046DDE90F12BD
:103D90009047761C50E1C4F30250022806D0032855
:103DA00009D0042801CF09D0066045E101CFF11701
:103DB000C0E9006140E101CF06803DE106703BE1D2
:103DC00017F8040B8DF8000000208DF80100EB4679
:103DD000012003E057F804BB4FF0FF3061074FF0BC
:103DE000000102D40DE008F10101884649450FDACF
:103DF0008045F8DB1BF808100029F4D108E008F131
:103E0000010188468142FADB1BF808100029F6D12F
:103E1000DDE90F23AAEB08008146214600F036F9C0
:103E2000304400EB080604E0DDE90F121BF8010B3B
:103E30009047B8F10108F7D221464846F7E00A2139
:103E4000C4F302534FF0000B0891022B04D001CFB2
:103E5000C117032B09D00AE0FF1D27F00707F7E879
:103E6000020108E032E01FE020E000B2C117042B9D
:103E700001D140B2C117031E71F1000307DA4FF000
:103E8000000CD0EB0C006CEB01012D2302E02305AC
:103E900004D52B238DF82430012303E0E30701D060
:103EA0002023F7E7984658E00A2110E010210EE0A1
:103EB00010204FF0000B08900CE010214FF0000B89
:103EC00044F004044FF00809089103E008214FF082
:103ED000000B0891C4F30253022B04D001CF002140
:103EE000032B06D006E0FF1D27F00707F7E80201C5
:103EF00003E080B2042B00D1C0B24FF000082307CA
:103F00002BD5702A07D0DDF820C08CF0100C5CEAAD
:103F10000B0C05D00EE040238DF82430012308E07F
:103F200050EA010306D030238DF824308DF8252087
:103F300002239846DDF820C08CF0080C5CEA0B0CDC
:103F40000BD150EA010301D1630706D530238DF868
:103F500024304FF00108A9F10109582A04D038A2F1
:103F60000B9208AA0A920BE03AA2F9E75B46089A7C
:103F7000FCF72EF90B9B9B5C0A9A521E0A92137057
:103F800050EA0102F2D10A98ADEB000000F1200BDB
:103F9000600702D524F4803401E04FF00109D945CF
:103FA00002DDA9EB0B0000E0002000EB0B01414417
:103FB0000890AAEB010AE00306D4DDE90F232146AD
:103FC000504600F063F806444FF0000908E009A9E4
:103FD00011F80900DDE90F12904709F10109761C7B
:103FE000C145F4DBE0030CD5DDE90F232146504643
:103FF00000F04CF8064404E0DDE90F123020904751
:10400000761C0899481E08900029F5DC08E00A98FB
:104010000A990078491C0A91DDE90F129047761C35
:10402000BBF10001ABF1010BF1DC21465046DDE9AB
:104030000F2300F019F806446D1C1BE60928010047
:10404000303132333435363738396162636465660E
:1040500000000000303132333435363738394142D0
:1040600043444546000000002DE9F0410446002588
:104070001E461746880404D405E039462020B04780
:104080006D1C641EF9D52846BDE8F0812DE9F0418C
:10409000044600251E469046C80301D5302700E09F
:1040A0002027880404D505E041463846B0476D1CFA
:1040B000641EF9D52846BDE8F0812DE9F0438DB0A6
:1040C0000DF1500E9EE8F013ADF80000ADF80210AF
:1040D0008DF804201868CDF805009888ADF809001F
:1040E000ADF80C50ADF81070ADF814908DF80B4091
:1040F000ADF80E60ADF81280ADF816C0182106A814
:10410000FCF7B0F83F20ADF818009C20ADF81A007D
:10411000182009900F2007900CA80A9001200B90FE
:10412000CDF820D0002106A800F06AFC002803DAB0
:10413000FF200DB0BDE8F0839DF83000F9E770B5C1
:104140008AB00E468DF820000020009001901C4699
:104150001546182102A8FCF785F83F20ADF80800A5
:104160008A20ADF80A0008A80490012005900720D5
:104170000790CDF818D0002102A800F041FC0028DB
:1041800002DAFF200AB070BD9DF800000028F9D1C6
:10419000BDF801003080BDF803002880BDF805009F
:1041A00020800020EEE770B58AB01C468DF8200014
:1041B000DDE90E6500208DF82110009001908DF84A
:1041C0002220182102A8FCF74DF83F20ADF8080086
:1041D0008A20ADF80A0008A8049003200590072063
:1041E0000790CDF818D0002102A800F009FC0028A3
:1041F00002DAFF200AB070BD9DF800000028F9D156
:10420000BDF801002080BDF803003080BDF8050036
:1042100028800020EEE72DE9F0438FB01D461346BD
:1042200016AA6C4692E8C0038DF800008DF80110C4
:1042300010221946A01CFBF7FCFF8DF812508DF8D8
:1042400013608DF81470CDF815808DF81990182131
:1042500007A8FCF707F83F20ADF81C008620ADF852
:104260001E001A20CDE909400DA80B9001200C90EA
:10427000002107A800F0C4FB002803DAFF200FB0DC
:10428000BDE8F0839DF83400F9E72DE9FF4192B0D5
:104290001EACDDE91C2594E84201AC190E34282C33
:1042A00003D9422016B0BDE8F0818DF81C00BDF89E
:1042B0004C00ADF84C0080B2ADF81D00BDF85000C8
:1042C000ADF8500080B2ADF81F008DF821308DF8A8
:1042D000222007AC01278DF8235009A82A46FBF7B6
:1042E000A8FF0835E8B232462654401CC5B2601912
:1042F0004146FBF79EFFBDF88410A819ADF8841065
:10430000C0B22118BDF884200A80BDF88810801C36
:10431000ADF88810C0B22118BDF88820801C0A8032
:10432000C5B2182101A8FBF79DFF3F20ADF804009E
:104330008320ADF8060011A8CDE9045000210697AE
:10434000039401A800F05CFB002801DAFF20A9E734
:104350009DF84400A6E72DE9FF4F8FB01F46DDE929
:104360002089BDF83C00DDF878A0ADF83C0080B2B3
:10437000DDF870B0ADF81C000326134607AD8DF8CC
:104380001E10012937D0102422461946E81CFBF7DD
:1043900050FFE41C2F55641C05F804B0641C1D98E4
:1043A0002855641CE0B205F800A0401CC0B21F995B
:1043B0002954401CC0B2182105F80080401CC4B22A
:1043C0000020009001A8FBF74DFF3F20ADF804004E
:1043D0004FF48270ADF806006846CDE90440002134
:1043E0000696039501A800F00BFB002805DAFF20D4
:1043F00013B0BDE8F08F0224C6E79DF80000002846
:10440000F6D1BDF80110A9F80010F1E72DE9F0414F
:104410008CB01E46DDF84880174607AD8DF81C00AD
:10442000012826D010242246681CFBF702FF641CDA
:1044300000202F55641C18212E55009001A8641CE3
:10444000FBF710FF3F20ADF804004FF48170ADF88A
:1044500006006846CDE9044003200690039500213C
:1044600001A800F0CDFA002805DAFF200CB0BDE865
:10447000F0810224D7E79DF800000028F6D1BDF8AE
:104480000110A8F80010F1E73FB58FB06C46BDF8F9
:104490003C00ADF83C0080B2ADF80000BDF8400033
:1044A000ADF8400080B2ADF802001699BDF84400A6
:1044B000ADF8440080B2ADF804008DF80630012B51
:1044C00021D010252A46E01DFBF7B3FE182106A8CF
:1044D000ED1DFBF7C7FE3F20ADF818004FF48B70C1
:1044E000ADF81A0007AA0F2082E831000CA80A9044
:1044F00001200B90002106A800F082FA002804DABF
:10450000FF2013B030BD0225DCE79DF83000F8E74E
:1045100000B587B018216846FBF7A4FE3F20ADF830
:10452000000040F20110ADF8020006A8049001203E
:1045300005900021684600F063FA002802DAFF20A7
:1045400007B000BD9DF81800FAE73FB5A7B09D1D64
:104550002E99802D02D942202BB030BDBDF89C0091
:10456000ADF89C0080B2ADF80000BDF8A000ADF839
:10457000A00080B28DF804206C46ADF802008DF8E2
:1045800005301A46A01DFBF754FEEDB2182120A8F5
:10459000FBF768FE3F20ADF880004FF48370ADF864
:1045A000820026A82294CDE92350012025900021E5
:1045B00020A800F025FA002801DAFF20CCE79DF8BA
:1045C0009800C9E73FB5541DA7B01946802C02D901
:1045D00042202BB030BDBDF89C00ADF89C0080B2ED
:1045E000ADF80000BDF8A000ADF8A00080B26D46A7
:1045F000ADF802008DF80420681DFBF71AFEE4B246
:10460000182120A8FBF72EFE3F20ADF8800040F2D5
:104610002110ADF882000F20CDE9210526A8CDE9B3
:10462000234001202590002120A800F0E9F900286E
:1046300001DAFF20CDE79DF89800CAE730B58FB0CA
:104640001446142A02D942200FB030BDADF8000044
:10465000ADF802106D468DF8044022461946681DDB
:10466000FBF7E7FD182107A8FBF7FCFD3F20ADF89D
:104670001C0040F22310ADF81E000DA8641DCDE90A
:104680000A4001200C900995002107A800F0B8F914
:10469000002801DAFF20D7E79DF83400D4E700B501
:1046A00089B08DF81C008DF81D1018216846FBF7A5
:1046B000D9FD3F20ADF800000F20ADF8020007A89B
:1046C00002900220039006A804900120059000218A
:1046D000684600F095F9002802DAFF2009B000BD15
:1046E0009DF81800FAE770B58D1CA8B01346802D10
:1046F00002D9422028B070BD8DF800006C468DF8BC
:1047000001100A4601261946A01CFBF792FDEDB2E6
:10471000182120A8FBF7A6FD3F20ADF880000C2053
:10472000ADF8820026A825962294CDE923500021D9
:1047300020A800F065F9002801DAFF20DAE79DF8EB
:104740009800D7E770470000F8B50EA00068009009
:10475000FDF74CF804460C4D42F2107605E000BF20
:10476000FDF744F8001BB04209D828896B46801C2D
:1047700081B20222E888FFF725FF4628F0D0012009
:104780006870F8BD010000000400002008B54FF07B
:10479000FF33012269460248FEF774F8009808BD0D
:1047A0006800002013B5074905484FF47A7309786B
:1047B000012200EB81106946FEF71DF900981CBD2F
:1047C000CC0300202000002030B587B0054601A8AA
:1047D0000C46009005AB04AA02A903A800F048F813
:1047E00010F0FF0014D1BDF80810090A2970BDF8B7
:1047F000081009022180BDF80420C2F3031241EA27
:1048000002112180BDF8042002F00F021143218023
:1048100007B030BD70B5134D00B1E86100F0B4F9D8
:10482000114800F021FA1048083000F01DFA0F4E30
:10483000002400BFC4EBC40000EB800006EB800145
:10484000094800F020FA641CE4B2052CF2D3296870
:1048500009B100208847A868002802D0BDE8704050
:10486000004770BDC80600204C0000200C0400204A
:104870002DE9F04389B000240F468046DDF84090D2
:104880001D46164600940194182103A80294FBF7D4
:10489000E9FC0420ADF80C000120ADF80E006846DC
:1048A000CDE90640092008900594002103A800F0F6
:1048B000A7F8002803DAFF2009B0BDE8F0839DF8CF
:1048C00000000028F8D19DF8011088F80010BDF80C
:1048D000020038809DF804003070BDF80500288083
:1048E000BDF80710A9F800100020E5E730B58FB03B
:1048F0000D46044620216846FBF7B4FC8DF80040C5
:104900001F2C00D91F2422466C462946601CFBF749
:1049100090FC182108A8FBF7A5FC0820ADF82000A2
:104920000920ADF822002020CDE90A400EA80C9005
:1049300001200D90002108A800F062F8002802DA9A
:10494000FF200FB030BD9DF83800FAE708B5002011
:104950000090144800F0A3F900281ED169461148C0
:1049600000F0A9F91048C268002A16D000988021EA
:1049700008309047009910F0FF000FD081F88800B0
:104980000B7A01F10802042B08D19278C01E8242F2
:1049900004D10448083000F076F908BD014800F061
:1049A00066F908BD4C000020C806002005490268D1
:1049B0000A60C268CA6002690A6182698A618068A5
:1049C00088607047C806002000B587B01821684687
:1049D000FBF748FC0320ADF80000ADF8020006A884
:1049E0000490012005900021684600F009F8002895
:1049F00002DAFF2007B000BD9DF81800FAE70000BA
:104A00002DE9F0410F46044601884088A8B061F3C3
:104A10009F2085B24FF0000826A8CDF8908000F0C6
:104A200023F908E06946564800F045F954480099D2
:104A3000083800F028F95248083800F007F9022831
:104A4000F0DB22886088267B62F39F20A168ADF8A6
:104A5000840001208DF886608DF80000BDF8840088
:104A6000ADF801008DF80360324601A8FBF7E1FBC9
:104A70004448026912B1311D684690471FB10020B9
:104A800028B0BDE8F0814FF47A7600BFFCF7AEFEA7
:104A90004FEA0007FCF7AAFEC01BB04262D83848B4
:104AA00000F0FDF80028F5D124A9354800F003F9FD
:104AB000249800F10803017A04293ED190F8882057
:104AC0005878D91CD21E0E2814D00F2804D01028D4
:104AD00048D03E2831D118E04888A84242D16068C9
:104AE0000F2802D00878A8BB27E0606909E062615E
:104AF000206916E0B1F80100A84233D1C91C6069F1
:104B0000D21E9042F3D80246F1E7087863689842D3
:104B100013D16069521E904200D802466261491C5E
:104B20002069FBF786FB16482499083800F09FF8A7
:104B300026A9134800F01CF9A1E71148083800F035
:104B4000AEF840B10E4800F0AAF820B10C48249904
:104B5000083802E006E026A8249900F094F8CDF881
:104B6000908093E7249919B10548083800F07FF840
:104B700026A9034800F0FCF84FF0FF3080E7000062
:104B800054000020C806002000B587B010480090EF
:104B9000104801901048049010480390104802906B
:104BA000104806906846FFF701FF01210E48FCF708
:104BB000E9FA0E4A00210C48FCF75CFB0022114682
:104BC0000620FCF7A7FE0620FCF772FE07B000BD2A
:104BD000592B0008352B00086D2C0008BD2B000850
:104BE0003D2C0008C508000868030020F14B0008B0
:104BF00010B5064C01212046FCF766FD012803D1C3
:104C00000020FFF7A3FEF5E710BD00000000024002
:104C100038B500200B4C00900DE069460A4800F0C2
:104C20004AF8E16911B100980830884706480099B0
:104C3000083800F028F8044800F031F80028ECD0DB
:104C400038BD0000C80600205400002003460020A4
:104C5000EFF3108172B61A6801E01268401C9A42A4
:104C6000FBD181F310887047006040607047EFF31C
:104C7000108272B60368C1E900300160086882F3EF
:104C8000108841607047EFF3108272B60860436885
:104C90004B604160486882F3108801607047EFF311
:104CA000108172B60268824201D1012000E000202A
:104CB00081F31088704730B50D46EFF3108472B65B
:104CC00001682960006800F008F829680020086081
:104CD000296884F31088486030BDEFF3108172B604
:104CE000D0E900231A6005C881F31088426070473C
:104CF00030B50D46EFF3108472B641682960406804
:104D0000FFF7EBFF296800200860296884F310880A
:104D1000486030BD86B0FCF777FD1348016841F06C
:104D2000010101600068694600F0010005904FF440
:104D3000C0600090022001900120029003200390A7
:104D4000072004900948FCF75DFBFEF717FEFEF70D
:104D50004DFEFEF7D1FAFEF701F9FDF7D3FF00BFD4
:104D6000FEF7F4F8FCE70000303802400000024093
:104D700038B50C46054607E069462046FFF7B8FF00
:104D800028460099FFF773FF2046FFF788FF0028A9
:104D9000F2D038BD70B506460D460020FBF7B4FDD5
:104DA000002404E0315D05A0FEF726FF641CAC4240
:104DB000F8DBBDE870400248FBF708BA2563000045
:104DC0005C00002038B50C4A0C4C1278012A0BD03C
:104DD00062890346521C95B20A46E088294601B012
:104DE000BDE83040FFF72ABC00900B460022E18965
:104DF000A089FFF7AAFB38BD0300002004000020B3
:104E000010B50C4C86B0E078002810D10AA30DF143
:104E1000040C0FCB8CE80F0001A8009002234FF682
:104E2000FF720121E088FFF72FFB0120E07006B040
:104E300010BD000004000020669A0C200008969E19
:104E4000E2119EB1E2F273D910B50C4C86B0A07895
:104E5000002810D10AA30DF1040C0FCB8CE80F0031
:104E600001A8009002234FF6FF720121E088FFF7AE
:104E70000BFB0120A07006B010BD00000400002054
:104E8000669A0C200008969EE2119EB1E1F273D959
:104E9000421C007804285AD11078052826D03E28D4
:104EA00026D0FF2853D132F8023FA3F54063013BDF
:104EB00026D00E2B30D027480F2B0178264838D02B
:104EC000112B44D1002942D18178921C09B101797A
:104ED00051B3C17800293AD04179002937D1B2F8CD
:104EE000031041811DA000BFFEF786BEFBF758BE30
:104EF0009178901C01292AD14188801DFBF722BEA0
:104F00001C48917900780128908803D012F107029B
:104F1000FBF7A6BC0932FBE71079801EC1B2B2F8DC
:104F20000500D21DFBF756BEB2F80310018112A096
:104F3000DAE700290BD1827801210AB102793AB16E
:104F4000C278002A03D04279002A00D1417170470B
:104F500001717047030000200400002052582043D4
:104F60006861722048616E646C6520253034580A8F
:104F700000000000000000205458204368617220A7
:104F800048616E646C6520253034580A00000000CA
:104F90002800200000200000690A00080F0000001F
:104FA00000200000000000000000000001020304D7
:104FB000060708090000000001020304000610169D
:104FC00000061016DDDDDDDDDCBBBBDDDDDDDDDD9E
:104FD000DDDDDDDD98888888888888887777777731
:104FE00077888888855555566666666666666666FD
:104FF00066688888833333322222222222222222A8
:105000002228888D2450000800000020680000003D
:10501000383C00088C50000868000020800E00001A
:10502000483C0008000100010100000000000000F1
:105030000000000000000000000000000000000070
:1050400000000000000000000000024000080240D4
:1050500000440040002000000000000000000000AC
:105060000024F40001000000100000000000000017
:105070000000000000000000000000000000000030
:0C50800000000000000000000000000024
:040000050800019559
:00000001FF
